:10000000972100009381418117210000130181FF96
:100010001712000013024200170500001305454E99
:100020007310553073102034170300001303C357A7
:10003000E70003001305406597150000938585FCD4
:1000400017160000130616FD63FCC5008322050089
:1000500023A055001305450093854500E3E8C5FE40
:100060001305806697150000938505FB17160000A1
:10007000130686FA63FCC5008322050023A0550001
:100080001305450093854500E3E8C5FE130580662A
:1000900097150000938545F8171600001306C6F75C
:1000A00063FCC5008322050023A05500130545000D
:1000B00093854500E3E8C5FE13054065930540655B
:1000C0006300B5021306406563FCC500832205008A
:1000D00023A055001305450093854500E3E8C5FEC0
:1000E00017150000130545F3971500009385C5F219
:1000F0006378B5002320050013054500E36CB5FEC9
:1001000017150000130545F1971500009385C5F0FC
:100110006378B5002320050013054500E36CB5FEA8
:1001200017150000130545EF97150000938585EF1F
:100130006378B5002320050013054500E36CB5FE88
:1001400017150000130505EE971500009385852D02
:10015000B385A540232005002322B5001304406584
:1001600093044065630A94000323040013044400CD
:10017000E70003006FF01FFF130500009305000068
:100180001703000013030323E70003001703000015
:0C0190001303C341E70003006F000000F0
:10019C00130101FE232E1100B72700009387B7002F
:1001AC0083C707002307F100B72700000347E100CE
:1001BC0023A0E7008347E10093F71700638407044B
:1001CC00B72700009387970083C70700A306F100A9
:1001DC00A30701006F000002B727000093874700B8
:1001EC0083C707002306F1008347F10093871700AC
:1001FC00A307F1000347F1008347D100E36EF7FC3E
:10020C006F0080078347E10093F72700638607069A
:10021C00B717000013850700EF008038930705001F
:10022C002324F100B717000023AA07006F00C003B6
:10023C00B717000003A74701B727000093874700B3
:10024C00B7160000938606003387E60003470700C5
:10025C002380E700B717000083A747011387170017
:10026C00B717000023AAE700B717000003A7470140
:10027C0083278100E36EF7FA130000008320C1018D
:10028C001301010267800000130101FD23261102F6
:10029C002326A100B7270000938787010327C100FD
:1002AC0023A0E700B72700009387C7010327C100ED
:1002BC0023A0E700B72700009387870313071000DC
:1002CC0023A0E700B717000013850700EF00402DAF
:1002DC0093070500232EF100B717000023AA07008F
:1002EC006F00C003B717000003A74701B727000032
:1002FC0093874700B7160000938606003387E60005
:10030C00034707002380E700B717000083A74701C6
:10031C0013871700B717000023AAE700B7170000D0
:10032C0003A747018327C101E36EF7FA130000000E
:10033C008320C1021301010367800000130101FE39
:10034C00232E11002326A1002324B1000327C10072
:10035C00B7070080938737006316F700EFF05FE371
:10036C006F0000030327C100B70700809387770055
:10037C006310F702B7270000938787051307100057
:10038C0023A0E700B70701001385F7FFEFF0DFEFBD
:10039C0083278100138507008320C101130101020B
:1003AC0067800000130101FD23261102B71700001E
:1003BC00238C0700B717000083C7870193E717004A
:1003CC0013F7F70FB7170000238CE700B7270000CF
:1003DC009387570037170000034787012380E700F6
:1003EC00B72700009387D700130780002380E7000E
:1003FC00B727000093878701370710001307F7FF13
:10040C0023A0E700B72700009387C7013707100028
:10041C001307F7FF23A0E700B717000023AE070070
:10042C00B717000083A7C70113E72700B717000011
:10043C0023AEE700B7270000938747043717000067
:10044C000327C70123A0E700B727000093874705C0
:10045C001307100023A0E700B7270000938787033A
:10046C001307100023A0E700F3774430232CF1008E
:10047C0093070008F3B74730232AF100F3674430A1
:10048C002328F10093070008F3A747302326F10037
:10049C00F36704302324F100B7170000138507001D
:1004AC00EF000010930705002322F100232E01001A
:1004BC006F000003B7270000938747003717000031
:1004CC00930607000327C1013387E60003470700A3
:1004DC002380E7008327C10193871700232EF100A7
:1004EC00832741000327C101E366F7FC6F0000007E
:1004FC00130101FC2320110023225100232461004D
:10050C00232671002328A100232AB100232CC1002B
:10051C00232ED1002320E1022322F1022324010304
:10052C00232611032328C103232AD103232CE103FF
:10053C00232EF10373252034F32510341703000008
:10054C00130303E0E700030073101534832001004C
:10055C0083224100032381008323C1000325010171
:10056C0083254101032681018326C1010327010252
:10057C0083274102032881028328C102032E010331
:10058C00832E4103032F8103832FC1031301010425
:10059C00730020306F00000067800000678000004F
:1005AC0093773500638A070283470500638207024D
:1005BC00930705009387170013F7370063000702B2
:1005CC0003C70700E31807FE3385A74067800000C8
:1005DC00930705006FF05FFF9307050083A60700E4
:1005EC003707FFFE1307F7EF3387E60093C6F6FFD6
:1005FC003377D700B7868080938606083377D70089
:10060C0063160702B705FFFE9385F5EF1386060008
:10061C009387470083A607003387B60093C6F6FF7F
:10062C003377D7003377C700E30407FE03C707000F
:10063C00630807009387170003C70700E31C07FE36
:08064C003385A7406780000020
:10065400537570657220507570657220576F72649F
:010664000095
:00000001FF
