:10000000975100009381812B17810000130181FF1C
:1000100017520000130282AA171500001305057C71
:100020007310553073102034172300001303838599
:10003000E7000300173500001305C52597450000AC
:10004000938545FC17460000130616FD63FCC500AA
:100050008322050023A05500130545009385450024
:10006000E3E8C5FE17350000130545249745000059
:100070009385C5FA17460000130646FA63FCC500CF
:100080008322050023A055001305450093854500F4
:10009000E3E8C5FE1735000013054521975500001C
:1000A0009385C5A117560000130606A263FCC50080
:1000B0008322050023A055001305450093854500C4
:1000C000E3E8C5FE173500001305059597350000D8
:1000D000938585946302B502173600001306861BCC
:1000E00063FCC5008322050023A0550013054500CD
:1000F00093854500E3E8C5FE17450000130505F2AA
:10010000975500009385859B6378B50023200500F3
:1001100013054500E36CB5FE175500001305059A5D
:1001200097550000938585996378B50023200500D5
:1001300013054500E36CB5FE175500001305C5987F
:10014000975500009385859E6378B50023200500B0
:1001500013054500E36CB5FE175500001305059D1A
:1001600097550000938585DCB385A54023200500C5
:100170002322B500173400001304048A97340000CA
:1001800093848489630A94000323040013044400C5
:10019000E70003006FF01FFF130500009305000048
:1001A0001703000013030359E700030017130000AF
:0C01B0001303836DE70003006F000000E4
:1001BC00130101FF378300001303030E03234300D5
:1001CC0023266100378300001303030E032303006F
:1001DC0023246100378300001303030E0323430021
:1001EC00032EC100E3186EFC0323C10013080300A7
:1001FC0093080000931708001307000003288100E0
:10020C0013060800930600003365C700B3E5D7005A
:10021C001307050093870500130507009385070056
:10022C001301010167800000130101FE232E110050
:10023C00B78700009387370183C707002307F100B6
:10024C00B78700000347E10023A0E7008347E100E4
:10025C0093F7170063840704B7870000938717018F
:10026C0083C70700A303F100A30701006F0000027E
:10027C00B78700009387C70083C707002303F100EB
:10028C008347F10093871700A307F1000347F100A0
:10029C0083477100E36EF7FC6F0080078347E10032
:1002AC0093F7270063860706B747000013850700FE
:1002BC00EF101019930705002324F100B757000025
:1002CC0023A807AC6F00C003B757000003A707AD06
:1002DC00B78700009387C700B746000093860600D7
:1002EC003387E600034707002380E700B757000079
:1002FC0083A707AD13871700B757000023A8E7ACF7
:10030C00B757000003A707AD83278100E36EF7FA08
:10031C00130000008320C10113010102678000005B
:10032C00130101FD232611022326A100B78700002B
:10033C00938707050327C10023A0E700B7870000B8
:10034C00938707021307100023A0E700B7470000AC
:10035C0013850700EF10D00E93070500232EF10034
:10036C00B757000023A807AC6F00C003B7570000B5
:10037C0003A707ADB78700009387C700B7460000F7
:10038C00938606003387E600034707002380E700C7
:10039C00B757000083A707AD13871700B7570000A6
:1003AC0023A8E7ACB757000003A707AD8327C1010B
:1003BC00E36EF7FA13000000130000008320C10263
:1003CC001301010367800000130101FD23261102B4
:1003DC002326A1002324B1000327C100B707008006
:1003EC00938737006316F700EFF01FE46F00C0032C
:1003FC000327C100B7070080938777006316F702C5
:10040C00B7870000938707041307100023A0E700A9
:10041C00B70701001385F7FFEFF09FF09307000873
:10042C00F3B74734232EF10083278100138507008F
:10043C008320C1021301010367800000B75700003D
:10044C00238A07ACB757000083C747AD93E7170063
:10045C0013F7F70FB7570000238AE7ACB7870000F4
:10046C009387D70037570000034747AD2380E70039
:10047C00B787000093875701130700042380E70018
:10048C00B7870000938767012380070013000000E3
:10049C0067800000130101FC232E1102232C810222
:1004AC00232A9102232821032326310323244103E9
:1004BC002322510323206103232E7101B75700001F
:1004CC0003A607B283A647B293070600B3E7D7008B
:1004DC00639E0700EFF0DFCD13070500938705003F
:1004EC00B756000023A0E6B223A2F6B2EFF05FCC21
:1004FC002324A1002326B100B757000003A507B29F
:10050C0083A547B2032781008327C1003306A74088
:10051C001308060033380701B386B740B38706418A
:10052C009386070013070600938706009355B701BF
:10053C00939B5700B3EB7501131B570013070B006C
:10054C0093870B003305C7401308050033380701A8
:10055C00B385D740B3870541938507001307050082
:10056C00938705009355A70193946700B3E4950016
:10057C00131467003305E4401308050033380401F5
:10058C00B385F440B3870541938507001304050038
:10059C00938405009357D401939A3400B3EA57011E
:1005AC00131A340013040A0093840A003307C4009E
:1005BC0093050700B3B58500B387D400B386F50067
:1005CC009387060013040700938407009357840154
:1005DC0093998400B3E937011319840013040900BB
:1005EC0093840900130704009387040037666202A2
:1005FC00130606A093060000130507009385070059
:10060C00EF10D00A13070500938705009307070026
:10061C00138507008320C103032481038324410332
:10062C00032901038329C102032A8102832A41027F
:10063C00032B0102832BC10113010104678000000D
:10064C00130101FE2326A1002324B1002322C100A3
:10065C00232E01006F00C00413000000B7870000B8
:10066C009387E70083C7070093F7F70F93F71700FB
:10067C0093F7F70FE39407FE8327C101032781004B
:10068C003307F700B78700009387C70003470700BD
:10069C002380E7008327C10193871700232EF100E5
:1006AC008327C10103274100E3E8E7FA9307000021
:1006BC00138507001301010267800000130101FF7D
:1006CC002326A100B757000083A787AB0327C100DF
:1006DC006302F702B757000083A7C7AB0327C1001B
:1006EC00630AF700B757000083A707AC0327C100C4
:1006FC006316F700930700006F0080009307F0FF6C
:10070C00138507001301010167800000130101FF2D
:10071C002326A10093071000138507001301010184
:10072C0067800000130101FF23261100EFF01FD199
:10073C00EF004001130000008320C10013010101F0
:10074C0067800000130101F6232E1108232C810869
:10075C00232A91082328210923263109B7370000C1
:10076C00138587A1EF10406EB75700003757000074
:10077C00130707A423A2E7AEB757000037570000B2
:10078C001307C7A723A0E7AEB757000083A707AE90
:10079C0037570000032747AE23A0E700B7570000E8
:1007AC0083A707AE23820700B757000083A707AEC5
:1007BC00130720002384E700B757000083A707AE78
:1007CC001307800223A6E700B757000083A707AEE4
:1007DC0013870701B7370000938787A49386070018
:1007EC009307F00113860700938506001305070095
:1007FC00EF1090099307810337370000130787A682
:10080C000323070083284700032887000325C7001C
:10081C0083250701032647018326870123A0670050
:10082C0023A2170123A4070123A6A70023A8B7001E
:10083C0023AAC70023ACD7008356C701239ED70039
:10084C000347E701238FE700B74700009387C707EB
:10085C001307A00023AEE732EFF0DFC393070500C8
:10086C001389070093090000B757000023AC27AD8C
:10087C0023AE37ADB7370000138587A8EF10C05CE7
:10088C0093071000232AF1066F004025EF00502D2E
:10089C00EF005028930720002328F106930730001F
:1008AC00232EF10693074100373700001307C7A921
:1008BC000323070083284700032887000325C7006C
:1008CC0083250701032647018326870123A06700A0
:1008DC0023A2170123A4070123A6A70023A8B7006E
:1008EC0023AAC70023ACD7008356C701239ED70089
:1008FC000347E701238FE70093071000A305F106D8
:10090C001307410093078103930507001385070024
:10091C00EF0050599307050093B7170093F7F70FA3
:10092C0013870700B757000023A6E7AE6F004004FB
:10093C000327010793070700939727003387E700E6
:10094C008327C107B307F7402326F1068327010746
:10095C001307C106130607008325C107138507007B
:10096C00EF00D02E83270107938717002328F10669
:10097C00832701070327C107E3CCE7FA8327010785
:10098C000327C1069306070013860700B74700002C
:10099C009385C707B747000013858701EF00D02E5A
:1009AC00B757000083A707AE13850700EF008078C8
:1009BC0093071004A30DF1066F00800A8347B1075B
:1009CC009305300413850700EF005048930705008A
:1009DC00138707008347B106631EF7069307B1061A
:1009EC009385070013050000EF0050199307410091
:1009FC00373700001307C7AB0323070083284700D2
:100A0C00032887000325C700832507010326470118
:100A1C008326870123A0670023A2170123A40701C3
:100A2C0023A6A70023A8B70023AAC70023ACD7008E
:100A3C008356C701239ED7000347E701238FE700A6
:100A4C0083274107232EF106B757000003274107E0
:100A5C0023A4E7AE8347B10793871700A30DF106D4
:100A6C00B757000083C717AF0347B107E3F8E7F4A4
:100A7C0083270107938507000325C107EF10800D1D
:100A8C0093070500232EF1068327C10693850700E3
:100A9C000325C107EF10800F930705002328F106EB
:100AAC008327C1060327C1073307F74093070700C5
:100ABC00939737003387E74083270107B307F74045
:100ACC00232EF1069307010713850700EF0000782A
:100ADC008327410793871700232AF1060327410731
:100AEC00B7470F0093870724E3D2E7DAEFF09F9A1A
:100AFC00930705001384070093040000B757000008
:100B0C0023AC87AE23AE97AEB73700001385C7ADC5
:100B1C00EF108033B7370000138507AEEF10C032EB
:100B2C00B73700001385C7ADEF100032B757000080
:100B3C0083A787AE93850700B7370000138587B16D
:100B4C00EF10C07093055000B7370000138547B302
:100B5C00EF10C06FB757000083A7C7AE938507008F
:100B6C00B7370000138507B5EF10406E93051000E2
:100B7C00B7370000138547B3EF10406DB75700002F
:100B8C0083C707AF93850700B73700001385C7B637
:100B9C00EF10C06B93051004B7370000138587B8AE
:100BAC00EF10C06AB757000083C717AF93850700D3
:100BBC00B7370000138547BAEF104069930520043E
:100BCC00B7370000138587B8EF104068B7470000AF
:100BDC009387870183A7070293850700B737000027
:100BEC00138507BCEF10806693057000B7370000C3
:100BFC00138547B3EF108065B74700009387C7078D
:100C0C0083A7C73393850700B73700001385C7BD8B
:100C1C00EF10C063B7370000138587BFEF10C022F9
:100C2C00B7370000138547C2EF100022B7570000FA
:100C3C0083A707AE83A7070093850700B73700008B
:100C4C00138507C3EF108060B73700001385C7C446
:100C5C00EF10801FB757000083A707AE83C747006C
:100C6C0093850700B7370000138507C8EF10005EA7
:100C7C0093050000B7370000138547B3EF10005DF4
:100C8C00B757000083A707AE83C78700938507007B
:100C9C00B73700001385C7C9EF10405B93052000E0
:100CAC00B7370000138547B3EF10405AB757000011
:100CBC0083A707AE83A7C70093850700B73700004B
:100CCC00138587CBEF10805893051001B7370000C0
:100CDC00138547B3EF108057B757000083A707AEB3
:100CEC009387070193850700B7370000138547CD1D
:100CFC00EF10C055B7370000138507CFEF10C014A5
:100D0C00B7370000138587D2EF100014B7570000D7
:100D1C0083A747AE83A7070093850700B73700006A
:100D2C00138507C3EF108052B73700001385C7D364
:100D3C00EF108011B757000083A747AE83C7470059
:100D4C0093850700B7370000138507C8EF100050D4
:100D5C0093050000B7370000138547B3EF10004F21
:100D6C00B757000083A747AE83C78700938507005A
:100D7C00B73700001385C7C9EF10404D930510001D
:100D8C00B7370000138547B3EF10404CB75700003E
:100D9C0083A747AE83A7C70093850700B73700002A
:100DAC00138587CBEF10804A93052001B7370000DD
:100DBC00138547B3EF108049B757000083A747AEA0
:100DCC009387070193850700B7370000138547CD3C
:100DDC00EF10C047B7370000138507CFEF10C006E0
:100DEC008327010793850700B73700001385C7D702
:100DFC00EF10C04593055000B7370000138547B37B
:100E0C00EF10C0448325C107B7370000138587D97D
:100E1C00EF10C0439305D000B7370000138547B3DC
:100E2C00EF10C0428327C10693850700B737000037
:100E3C00138547DBEF10804193057000B737000036
:100E4C00138547B3EF1080408347B10693850700A5
:100E5C00B7370000138507DDEF10403F93051000F6
:100E6C00B7370000138547B3EF10403E930781035B
:100E7C0093850700B73700001385C7DEEF10003DE0
:100E8C00B7370000138587E0EF00107C9307410013
:100E9C0093850700B7370000138507E4EF10003B7C
:100EAC00B73700001385C7E5EF00107AB73700009D
:100EBC001385C7ADEF005079B757000003A787AF74
:100ECC0083A7C7AFB756000003A586AD83A5C6ADF3
:100EDC003306A7401308060033380701B386B74022
:100EEC00B387064193860700130706009387060015
:100EFC00B756000023A0E6B023A2F6B0B757000007
:100F0C0003A707B083A747B01306803E93060000E3
:100F1C001305070093850700EF00507913070500B0
:100F2C00938705009307070093850700B7370000E8
:100F3C00138547E9EF108031B757000003A707B0BE
:100F4C0083A747B093860700639A0602938607002F
:100F5C0063980600B7871E009387F74763E0E702A4
:100F6C00B7370000138547EBEF00106EB737000062
:100F7C001385C7EEEF00506D6F00C019B757000016
:100F8C0003A707B083A747B0130507009385070095
:100F9C00EF00902A1307050093870500B736000071
:100FAC0003A606F783A646F71305070093850700EB
:100FBC00EF00D00C1307050093870500B75600000F
:100FCC0023A4E6B023A6F6B0B757000003A707B0DA
:100FDC0083A747B01305070093850700EF00D025C2
:100FEC001307050093870500B736000003A606F724
:100FFC0083A646F71305070093850700EF0010083A
:10100C001307050093870500130607009386070056
:10101C00B737000003A507F783A547F7EF001006C5
:10102C001307050093870500B756000023A8E6B008
:10103C0023AAF6B0B757000003A707B183A747B19F
:10104C00B736000003A686F783A6C6F7130507007C
:10105C0093850700EF0090021307050093870500A6
:10106C00B756000023ACE6B023AEF6B0B73700009D
:10107C001385C7F0EF10801DB757000003A787B08A
:10108C0083A7C7B01305070093850700EF00501620
:10109C009307050093850700B73700001385C7F346
:1010AC00EF10C01AB7370000138547F4EF10001A81
:1010BC00B757000003A707B183A747B11305070073
:1010CC0093850700EF00D012930705009385070066
:1010DC00B73700001385C7F3EF104017B737000080
:1010EC001385C7F5EF108016B757000003A787B11B
:1010FC0083A7C7B11305070093850700EF00500FB6
:10110C009307050093850700B73700001385C7F3D5
:10111C00EF10C013130000008320C10903248109C0
:10112C0083244109032901098329C1081301010AF8
:10113C0067800000130101FD232611022326A10064
:10114C008327C10083A70700232EF100B7570000A7
:10115C0003A707AE8327C10083A707009386070068
:10116C009307C00313860700930507001385060039
:10117C00EF0090718327C1001307500023A6E700EE
:10118C008327C10003A7C7008327C10123A6E7005B
:10119C008327C10003A707008327C10123A0E70011
:1011AC008327C10113850700EF00C0108327C101FD
:1011BC0083C74700639207068327C10113076000AA
:1011CC0023A6E7008327C10003C787008327C1013B
:1011DC00938787009385070013050700EF00001A1B
:1011EC00B757000083A707AE03A707008327C101E9
:1011FC0023A0E7008327C10103A7C7008327C101F0
:10120C009387C700138607009305A00013050700FA
:10121C00EF00C0236F0080028327C10083A7070063
:10122C000327C100938607009307C00313860700AA
:10123C009385060013050700EF00106513000000EE
:10124C008320C1021301010367800000130101FE1A
:10125C002326A1008327C10083A707009387A7003B
:10126C00232EF100B757000003C707AF93071004F4
:10127C006316F7028327C1019387F7FF232EF10032
:10128C00B757000083A787AE0327C1013307F74088
:10129C008327C10023A0E700A30D01008347B10100
:1012AC00E39207FC1300000013000000130101027D
:1012BC0067800000130101FE232E11002326A100DC
:1012CC00B757000083A707AE638C0700B757000021
:1012DC0083A707AE03A707008327C10023A0E7005D
:1012EC00B757000003A787AEB757000083A707AE18
:1012FC009387C70013860700930507001305A0000A
:10130C00EF00C014130000008320C101130101027F
:10131C0067800000130101FFB757000083C707AFB8
:10132C009387F7FB93B7170093F7F70F2326F1007A
:10133C00B757000003A7C7AE8327C1003367F70078
:10134C00B757000023A6E7AEB757000013072004D9
:10135C00A388E7AE130000001301010167800000B1
:10136C00B7570000130710042388E7AEB7570000E7
:10137C0023A607AE1300000067800000130101FED6
:10138C00232E1100930705002324B100A307F100BD
:10139C00832781000347F1002380E7008347F10096
:1013AC0013850700EF00003F9307050063980700C3
:1013BC0083278100130730002380E7008347F10067
:1013CC0013074000636CF70613972700B73700002C
:1013DC00938707F8B307F70083A707006780070018
:1013EC0083278100238007006F004005B75700005A
:1013FC0003A787AE9307400663D8E70083278100D5
:10140C00238007006F0080038327810013073000BF
:10141C002380E7006F0080028327810013071000F0
:10142C002380E7006F0080018327810013072000D1
:10143C002380E7006F008000130000001300000001
:10144C008320C1011301010267800000130101FE1A
:10145C002326A1002324B1002322C1008327C1002D
:10146C0093872700232EF100032781008327C101D6
:10147C003307F7008327410023A0E7001300000087
:10148C001301010267800000130101FE2326A10055
:10149C002324B1002322C1002320D1008327410043
:1014AC0093875700232CF100832781019397270002
:1014BC000327C100B307F7000327010023A0E700AF
:1014CC0083278101939727000327C1003307F70077
:1014DC008327810193871700939727008326C100E8
:1014EC00B387F6000327070023A0E70083278101B9
:1014FC009387F700939727000327C100B307F700E2
:10150C000327810123A0E70083278101232EF1000B
:10151C006F00C004032781019307070093971700FE
:10152C00B387E70093973700B387E70093972700BB
:10153C0013870700832781003387E7008327C101C6
:10154C0093972700B307F7000327810123A0E70037
:10155C008327C10193871700232EF1008327810174
:10156C00938717000327C101E3D6E7FA032781010C
:10157C009307070093971700B387E70093973700FB
:10158C00B387E70093972700138707008327810011
:10159C003387E700832781019387F7FF9397270011
:1015AC00B307F70003A60700032781019307070081
:1015BC0093971700B387E70093973700B387E7003B
:1015CC00939727001387070083278100B386E700D2
:1015DC00832781019387F7FF130716009397270042
:1015EC00B387F60023A0E700832781019397270098
:1015FC000327C1003306F700032781019307070077
:10160C0093971700B387E70093973700B387E700EA
:10161C00939727009387873E03278100B306F70033
:10162C00032706008327810193972700B387F600D1
:10163C0023A0E700B75700001307500023A4E7AE20
:10164C00130000001301010267800000130101FE6A
:10165C009307050013870500A307F1009307070004
:10166C002307F1008347F100A30FF1008347F10139
:10167C00230FF1000347E1018347E1006306F70004
:10168C00930700006F004001B75700000347F101BA
:10169C002388E7AE9307100013850700130101029E
:1016AC0067800000130101FD232611022326A100EF
:1016BC002324B10093072000232EF1006F000005B6
:1016CC008327C1010327C100B307F70083C60700B6
:1016DC008327C1019387170003278100B307F70005
:1016EC0083C707009385070013850600EFF01FF6EC
:1016FC0093070500639C070093071004A30DF100EA
:10170C008327C10193871700232EF1000327C10102
:10171C0093072000E3D6E7FA0347B101930760056E
:10172C0063FCE7000347B1019307900563E6E7000C
:10173C0093077000232EF1000347B1019307200596
:10174C006316F700930710006F00C0038325810018
:10175C000325C100EF004058930705006352F002C7
:10176C008327C10193877700232EF100B757000020
:10177C000327C10123A4E7AE930710006F0080007C
:10178C0093070000138507008320C1021301010396
:10179C0067800000130101FE93070500A307F10009
:1017AC008347F100A30FF1000347F10193072000D9
:1017BC006316F700930710006F008000930700007A
:1017CC00138507001301010267800000130101FC5F
:1017DC0023201100232251002324610023267100B1
:1017EC002328A100232AB100232CC100232ED100D1
:1017FC002320E1022322F1022324010323261103D7
:10180C002328C103232AD103232CE103232EF10324
:10181C0073252034F325103417F3FFFF130303BB98
:10182C00E70003007310153483200100832241006C
:10183C00032381008323C10003250101832541017A
:10184C00032681018326C10103270102832741025C
:10185C00032881028328C102032E0103832E410336
:10186C00032F8103832FC103130101047300203064
:10187C006F000000678000006780000033C3D50054
:10188C00B7020080337353003387B500B387D6009B
:10189C00B703E0FF6370771263FA7712135757019F
:1018AC0093D75701630E0712638C0710B303F740ED
:1018BC009395B500B3E5550093D7B5001307050014
:1018CC009396B600B3E6560093D6B60063E0F602E4
:1018DC006394D700636CE6009383F3FFB322070095
:1018EC003307E700B387F700B3875700930207006D
:1018FC003307C740B3B2E200B387D740B387574032
:10190C001305F03FB383A300635E700C3305A50091
:10191C006368750A371500001305058093050000F0
:10192C00B32207003307E700B387F700B3875700EC
:10193C00B32205003305A500B385B500B38555006A
:10194C0063E2D7026394D700636EC700930207006B
:10195C003307C740B3B2E200B387D740B3875740D1
:10196C0013051500E3DE05FA9395150093D51500C4
:10197C0093934301B32207003307E700B387F700C3
:10198C00B387570063E2D7026394D700636EC70036
:10199C001305150093321500B38555006396D700D7
:1019AC006314C7001375E5FFB3857500B3E56500D7
:1019BC006780000063107702631E050063FC7700EC
:1019CC00B705F07F130500006FF05FFE631406008F
:1019DC00638A7700B705F87F130500006FF05FFD91
:1019EC00E38A07FE13050000930503006FF05FFC0C
:1019FC0063CC050213D64501130616C063460602D6
:101A0C001307F0013307C740634407021355550110
:101A1C009395B5003365B500B70600803365D500E6
:101A2C003355E50067800000130500006780000057
:101A3C001305F0FF67800000638A050A1307000096
:101A4C0013D60501631606001307070193950501CC
:101A5C0013D685016316060013078700939585003E
:101A6C0013D6C5016316060013074700939545006E
:101A7C0013D6E5016316060013072700939525007E
:101A8C0063C6050013071700939515009346F7FFDF
:101A9C003356D50013561600B3E5C5003315E500D3
:101AAC009386E643131645011355B500139755015C
:101ABC003365E50093D5B5009396460133270600B0
:101ACC003306C600B32706003306C6003306E6000D
:101ADC003336C0003376F6003305C500B337C50086
:101AEC00B385F500B385D50067800000E30E05FED5
:101AFC009306D04113560501631606001315050114
:101B0C00938606FF13568501631606001315850090
:101B1C00938686FF1356C501631606001315450000
:101B2C009386C6FF1356E5016316060013152500B0
:101B3C009386E6FF63460500131515009386F6FFA2
:101B4C009355B5001315550193964601B385D500F1
:101B5C006780000063F8A5001306050013850500D7
:101B6C00930506009307050013050000638E07001C
:101B7C0013F7170093D71700630407003305B5005C
:101B8C0093951500E39607FE6780000013D6F54188
:101B9C00B3C5C500B386C540638C06049355F541A7
:101BAC003346B600130706003345B500B305B54000
:101BBC0013D51500138606006F008000131616004F
:101BCC00E37EC5FE130500006F008000135616005F
:101BDC003305A50063E6C500B385C54013051500A4
:101BEC00E316D6FE3345E5003305E540678000007B
:101BFC001305000067800000638005041386050050
:101C0C0093060500135515006F008000131616007F
:101C1C00E37EC5FE130500006F008000135616000E
:101C2C001315150063E6C600B386C64013051500F0
:101C3C00E316B6FE67800000130500006780000005
:101C4C009305050093763500638C06020346050068
:101C5C0063000608130515009376350063820602AF
:101C6C00034605006306060613051500937635003A
:101C7C006388060003460500630C06041305150073
:101C8C00370601011306161093167600032705007C
:101C9C0013054500B307C7401347F7FFB3F7E70039
:101CAC00B3F7D700E38407FE1305C5FF139787012D
:101CBC00631007021305150013970701631A070039
:101CCC0013051500139787006314070013051500FF
:101CDC003305B540678000003366B50013763600D7
:101CEC0063120604B702FFFE9382F2EFB786808080
:101CFC00938606080327050083A705006314F702E3
:101D0C003307570093C7F7FFB3F7E700B3F7D700D4
:101D1C001305450093854500E38E07FC1305C5FFAD
:101D2C009385C5FF034605001305150083C6050002
:101D3C00938515006314D600E31606FE3305D640D2
:101D4C0067800000130101FE232631019309050071
:101D5C0013850600232C8100232A910023282101BE
:101D6C00232E11009384060013840500130906002A
:101D7C00EFE0DF94634405069305090013050400A6
:101D8C00EFF05FDD1306050013050000637086029B
:101D9C008320C10103248101832441010329010112
:101DAC008329C1001301010267800000938509009B
:101DBC0013850400EFE0DF8893050400EFF0DFE308
:101DCC008320C101032481018324410103290101E2
:101DDC008329C10013010102678000008320C10127
:101DEC000324810183244101032901018329C100BA
:101DFC00130500001301010267800000130101FEAE
:101E0C009307050093860500130610009305100038
:101E1C001305F100232E1100A307F100EFF09FF240
:101E2C00630A05000345F1008320C101130101027F
:101E3C00678000001305F0FF6FF01FFFB75700001D
:101E4C0083A5C7AB6FF09FFB130101FFB7570000D1
:101E5C002322910083A4C7AB2326110023248100E5
:101E6C0013040500EFF0DFDD1306050093050400F5
:101E7C0013850400EFE0CFFC9307F0FF630EF50031
:101E8C00032481008320C100832441001305A0009A
:101E9C00130101016FF09FFA8320C100032481001C
:101EAC00832441001301010167800000B367D60051
:101EBC0063880710130710009307000063C806021D
:101ECC009358F6011358F7011393160093971700C4
:101EDC00B3E6680013161600B367F8001317170063
:101EEC00E35003FE3368F7006302080E9308060004
:101EFC00138806001306000093060000139FF701D9
:101F0C0013531700931EF80113DE180063EE050936
:101F1C00130101FF2326810023249100B30F1541E7
:101F2C003307E6003334F501B3840541B333C700FE
:101F3C00B382F6006314B800636A150113850F00B1
:101F4C00B385844013060700B386530033676F00D4
:101F5C0093D717003363F700B3E8CE01135818007A
:101F6C0063080302139FF70113531700931EF80124
:101F7C0013DE1800E3F405FB33676F0093D71700EB
:101F8C003363F700B3E8CE0113581800E31C03FCCD
:101F9C000324C100832481001305060093850600E9
:101FAC00130101016780000033676F0093D717009E
:101FBC003363F700B3E8CE0113581800E31003F4B1
:101FCC0013050600938506006780000013060700C2
:101FDC00938607006FF0DFFEB367D600638A0708AD
:101FEC00930710001307000063C806029358F6010C
:101FFC0013D8F7011393160013171700B3E66800F4
:10200C00131616003367E80093971700E35003FE8E
:10201C0033E8E700630408069308060013880600FB
:10202C0013060500938605009315F70193D7170047
:10203C00B3E7F500135717001313F80113D5180065
:10204C00B3E5E70063E00603330E1641B33EC60169
:10205C00338F06416314D8006366160113060E0015
:10206C00B306DF41B368A30013581800E39E05FACA
:10207C001305060093850600678000001306050013
:10208C00938605006FF0DFFE630006023306C50081
:10209C009307050003C70500938717009385150068
:1020AC00A38FE7FEE398C7FE678000008326050236
:1020BC0013850500930510006FF0DFC88327050119
:1020CC00130101FE93F5F50F232C8100232E110033
:1020DC00A307B1000327050013040500638007065E
:1020EC00832645006370D704032745019306170028
:1020FC00232AD500B387E7002380B70003264501C8
:10210C0083278501630CF60A832704008320C10111
:10211C00938717002320F40003248101130101028B
:10212C0067800000930717008320C1012320F4006F
:10213C000324810113010102678000008326C5007E
:10214C006384060403264500930717006388C702BF
:10215C00E37CC7FC8347F1003387E6002300F700DC
:10216C00832704008320C101938717002320F400E8
:10217C00032481011301010267800000A307010001
:10218C00E374C7FA6FF01FFD832685006380060693
:10219C0003264500930717006384C704E376C7F84A
:1021AC008347F100131727003387E6002320F7003D
:1021BC0083270400938717006FF01FF7E30606F4DC
:1021CC008327C5016386070083250501E780070087
:1021DC0083270400232A0400938717006FF0DFF491
:1021EC00A3070100E372C7F46FF09FFB8327C501BF
:1021FC00E38A07F283264500E376D7F21306100034
:10220C009305F100E78007006FF01FF003264501EE
:10221C00630C06028327C501130101FF23248100EF
:10222C00232611001304050063860700832505018E
:10223C00E78007008320C100232A040003248100C7
:10224C00130101016780000067800000130101F990
:10225C002326110423248104232291041304010551
:10226C0023202105232E3103375300000329C3AB50
:10227C009309440093040500130509002322B400BC
:10228C002324C4002326D4002328E400232AF400AA
:10229C00232C0401232E1401232C34FBEFE00FC755
:1022AC001307F500137707FF3301E1403707008070
:1022BC001347F7FF2320E4FC3727000093070500A2
:1022CC0013860900938504001305C4FB1307870BC1
:1022DC00232624FC232E24FD232404FC232CE4FCA1
:1022EC00232AF4FC232804FCEF004002130104FB16
:1022FC008320C104032481048324410403290104A1
:10230C008329C1031301010767800000130101FA3F
:10231C00232C810423282105232E1104232A910424
:10232C002326310523244105232251052320610551
:10233C00232E7103232C8103232A91032328A10329
:10234C002326B103232005001384050083C5050053
:10235C00130905006382051A373A0000373B000069
:10236C00B73A00009309060013041400130A4AFB41
:10237C00130B4BF9938A4AFA6F00C001130509003D
:10238C00EFF0DFD39304040083C50400138414001E
:10239C006384051693075002E392F5FE834704000D
:1023AC001307700293080000378E00001308B00268
:1023BC001305E005371300009305000213063002E5
:1023CC00930614006382E7026366F702638EB7021A
:1023DC006396C76293E808081384060083470400D9
:1023EC0093061400E392E7FEB3E8C80113840600D9
:1023FC006FF0DFFE638E070D639EA700B3E86800E5
:10240C00138406006FF09FFD93E808041384060004
:10241C006FF0DFFC130740076382E70C1307A0077C
:10242C00638EE70A1307A006638AE71A1307C00630
:10243C00638AE74C1307800693840600638EE72AB1
:10244C001387B7FD1377F70F93063005E3EEE6F22B
:10245C0013172700330747010327070067000700FE
:10246C0037270000B3E8E8003747000093F6080868
:10247C0033F7E800930B00006390062693F62800D0
:10248C006312070E639E061C13F7480003A5090090
:10249C0093050000938949006302071E131505017B
:1024AC001355050193050000938787FA93F7F70FEF
:1024BC00130700026364F71E373700009397270059
:1024CC0013074710B387E70083A70700678007004F
:1024DC0093E80802138406006FF05FF083C70600D0
:1024EC0093042400E39E07F413050900EFF01FD2B8
:1024FC001305F0FF6F0040028327C90063880700B3
:10250C0003270900832649006362D71E13050900BF
:10251C00EFF0DFCF032509008320C10503248105DB
:10252C0083244105032901058329C104032A81045D
:10253C00832A4104032B0104832BC103032C810345
:10254C00832C4103032D0103832DC10213010106CA
:10255C00678000003747000093F62800930B0000BB
:10256C00B3E8E8006396060803A7090013F64800D1
:10257C00938949009356F74113050700938506008C
:10258C00630A060813170701135707419356F741BF
:10259C00130507009385060063D606083336E00062
:1025AC003303D040938787FA3307E0403303C340AB
:1025BC0093F7F70F9306000213050700930503002A
:1025CC0063E0F63EB7360000939727009386861893
:1025DC00B387D70083A707006780070083C706006F
:1025EC0093E8280093042400E39C07E46FF0DFEFEA
:1025FC009389790093F989FF03A7090083A6490001
:10260C0013F648009389890013050700938506008B
:10261C00E31A06F613F68800E30006F81375F70FB5
:10262C009305000013F708026316073413F7080428
:10263C00E30C07E6938787FA93F7F70F130700026B
:10264C00930B00026362F73437370000939727002F
:10265C001307C720B387E70083A70700678007002D
:10266C009389790093F989FF13F7480003A50900B2
:10267C0083A5490093898900E31207E213F78800C8
:10268C00E30407E2938787FA93F7F70F1307000227
:10269C001375F50F93050000E370F7E21304F0FFD8
:1026AC009307F00F63E6770B639A0B0A9307F0FF1F
:1026BC00E30CF4CC930B810033848B008345040032
:1026CC0013050900EFF09F9F930704001304F4FF18
:1026DC00E396FBFE6FF05FCB93068007B73B0000E1
:1026EC00638AD72C938B8B056FF05FD9B387E70088
:1026FC00238007006FF09FE183C706006380E72CFF
:10270C009304240093E84800E39C07D26FF0DFDDCC
:10271C0093FB080893BB1B00B30B704193FBDBFDD1
:10272C0003A5090093050000938B3B0293E8081066
:10273C0093894900B367B5006392071E93070003A2
:10274C002304F1009307F00F13040000E3FE77F568
:10275C0093D58B0013050900EFF05F9693850B0062
:10276C0013050900EFF09F956FF05FF4B367B500A8
:10277C00130D0500938D0500E38207FC378C0000D8
:10278C0033FC8801930C00006F0040059307040094
:10279C0013840C00938C07001306A0009306000012
:1027AC0013050D0093850D00EFF01F8393070102B5
:1027BC0013070503B38787001306A00093060000D8
:1027CC0013050D0093850D002384E7FEEFF00FEE4B
:1027DC0063840D12130D0500938D050013841C00EA
:1027EC00E3060CFA93F73C0013073000E390E7FA8A
:1027FC0093070102B38797011307C0022384E7FEF6
:10280C00938C2C006FF05FF93747000033F7E8002A
:10281C00930B00006FF09FC603A409009389490035
:10282C0083450400E38205B6130414001305090064
:10283C0013041400EFF09F888345F4FFE39805FE22
:10284C006FF09FB493FB080893BB1B00B30B704154
:10285C0093FB0BFD3747000033F7E800938B0B031A
:10286C006FF0DFC19305500213050900EFF01F85CF
:10287C006FF09FB183C509001305090093894900C6
:10288C00EFF0DF836FF05FB093F7880003A70900C8
:10289C0083260900938949006390071093F8280058
:1028AC002320D700E38208AE232207006FF0DFADB0
:1028BC00930BD002B367B500E38207E8930681005F
:1028CC0013070000937775001396D5011355350047
:1028DC00938707033365A60093D535002380F60054
:1028EC00B367B5001304070093861600130717008F
:1028FC00E39A07FC6FF0DFDA93079000E3ECA7EDA7
:10290C006FF01FDA83C706006384E70C930424007E
:10291C0093E81800E39607B26FF01FBDB7270000CD
:10292C00B3F8F80013078100130400006F00400394
:10293C00B387FA0083C707009396C501135545006A
:10294C0033E5A60093D545002300F700B367B50027
:10295C009306140013071700E38407D413840600AE
:10296C009377F500E39608FCB307FB0083C70700D9
:10297C006FF09FFC938787FA93F7F70F130700020A
:10298C00930BB002E372F7CC93850B00130509008F
:10299C00EFF0CFF26FF05F9F2300D7006FF0DF9E58
:1029AC00930BD00293850B0013050900EFF00FF188
:1029BC006FF09F9D938B8B076FF05FAC83C71600F6
:1029CC0093E8880093842600E39C07A66FF0DFB1A0
:1029DC0083C7160093E8280093043400E39207A6FB
:1029EC006FF09FB0930BD0026FF0DFD4130D070084
:1029FC00930D0300930BD0026FF05FD89384060005
:082A0C00E39007A46FF05FAE38
:102A1400000000004468727973746F6E652042652B
:102A24006E63686D61726B2C2056657273696F6E8C
:102A340020322E3120284C616E67756167653A201B
:102A4400432900004448525953544F4E4520505294
:102A54004F4752414D2C20534F4D4520535452491A
:102A64004E4700004448525953544F4E452050524B
:102A74004F4752414D2C203127535420535452492F
:102A84004E470000457865637574696F6E207374F2
:102A9400617274732E2E2E004448525953544F4E73
:102AA400452050524F4752414D2C2032274E44204E
:102AB400535452494E4700004448525953544F4EC0
:102AC400452050524F4752414D2C20332752442029
:102AD400535452494E4700000D00000046696E6190
:102AE4006C2076616C756573206F66207468652050
:102AF4007661726961626C657320757365642069BF
:102B04006E207468652062656E63686D61726B3AED
:102B14000D000000496E745F476C6F623A202020FC
:102B240020202020202020202025640D0A000000E1
:102B3400202020202020202073686F756C64206280
:102B4400653A20202025640D0A000000426F6F6C56
:102B54005F476C6F623A2020202020202020202014
:102B64002025640D0A00000043685F315F476C6FE5
:102B7400623A202020202020202020202025630DC0
:102B84000A000000202020202020202073686F7578
:102B94006C642062653A20202025630D0A00000041
:102BA40043685F325F476C6F623A20202020202008
:102BB400202020202025630D0A0000004172725F4E
:102BC400315F476C6F625B385D3A20202020202003
:102BD4002025640D0A0000004172725F325F476C69
:102BE4006F625B385D5B375D3A2020202025640DE1
:102BF4000A000000202020202020202073686F7508
:102C04006C642062653A2020204E756D6265725FA7
:102C14004F665F52756E73202B2031300D0000001B
:102C24005074725F476C6F622D3E0D00202050740B
:102C3400725F436F6D703A202020202020202020D6
:102C44002025640D0A0000002020202020202020C0
:102C540073686F756C642062653A20202028696D62
:102C6400706C656D656E746174696F6E2D646570EA
:102C7400656E64656E74290D0000000020204469AF
:102C84007363723A2020202020202020202020203E
:102C94002025640D0A0000002020456E756D5F43F9
:102CA4006F6D703A20202020202020202025640DE4
:102CB4000A0000002020496E745F436F6D703A2053
:102CC40020202020202020202025640D0A00000040
:102CD40020205374725F436F6D703A2020202020AF
:102CE400202020202025730D0A0000002020202011
:102CF4002020202073686F756C642062653A202060
:102D0400204448525953544F4E452050524F475235
:102D1400414D2C20534F4D4520535452494E470D9D
:102D2400000000004E6578745F5074725F476C6FEA
:102D3400622D3E0D000000002020202020202020B5
:102D440073686F756C642062653A20202028696D71
:102D5400706C656D656E746174696F6E2D646570F9
:102D6400656E64656E74292C2073616D65206173D2
:102D74002061626F76650D00496E745F315F4C6F40
:102D8400633A202020202020202020202025640DAC
:102D94000A000000496E745F325F4C6F633A202072
:102DA40020202020202020202025640D0A0000005F
:102DB400496E745F335F4C6F633A202020202020DB
:102DC400202020202025640D0A000000456E756D2A
:102DD4005F4C6F633A2020202020202020202020D8
:102DE4002025640D0A0000005374725F315F4C6F3C
:102DF400633A202020202020202020202025730D2D
:102E04000A000000202020202020202073686F75F5
:102E14006C642062653A2020204448525953544F30
:102E24004E452050524F4752414D2C203127535488
:102E340020535452494E470D000000005374725FF2
:102E4400325F4C6F633A2020202020202020202055
:102E54002025730D0A00000020202020202020209F
:102E640073686F756C642062653A20202044485270
:102E74005953544F4E452050524F4752414D2C20E8
:102E840032274E4420535452494E470D000000004F
:102E9400457865637574696F6E20656E6473202868
:102EA400616674657220256C75206D73290A0000B3
:102EB4004D656173757265642074696D6520746F06
:102EC4006F20736D616C6C20746F206F6274616924
:102ED4006E206D65616E696E6766756C20726573D0
:102EE400756C747300000000506C65617365206933
:102EF4006E637265617365206E756D626572206FB5
:102F0400662072756E7300004D6963726F7365633A
:102F14006F6E647320666F72206F6E652072756EBB
:102F2400207468726F756768204468727973746F6F
:102F34006E653A2000000000256C750A0000000050
:102F44004468727973746F6E657320706572205370
:102F540065636F6E643A2000564158204D495053C2
:102F640020726174696E67203D200000000000003B
:102F740080842E410000000000749B40EC1300008C
:102F8400F81300002414000044140000341400005A
:102F940030313233343536373839616263646566CB
:102FA400303132333435363738394142434445467B
:102FB4007028000094230000942300009423000050
:102FC4009423000094230000942300009423000021
:102FD4009423000094230000942300009423000011
:102FE4009423000094230000942300009423000001
:102FF40094230000942300009423000094230000F1
:1030040094230000942300009423000094230000E0
:1030140094230000942300009423000094230000D0
:1030240094230000942300009423000094230000C0
:1030340094230000942300009423000094230000B0
:1030440094230000942300009423000094230000A0
:103054009423000094230000942300009423000090
:103064009423000094230000942300009423000080
:103074009423000094230000942300006C24000097
:103084009423000094230000942300009423000060
:103094009423000094230000942300009423000050
:1030A4009423000094230000802800006025000081
:1030B4009423000094230000942300009423000030
:1030C4006025000094230000942300009423000052
:1030D4009423000094280000502800001C270000BE
:1030E400942300009423000024280000942300006B
:1030F400142800009423000094230000742400008A
:1031040040270000A8260000A8260000A8260000EA
:10311400A8260000A8260000A8260000A826000073
:10312400A8260000A8260000A8260000A826000063
:1031340078270000A8260000A8260000A826000082
:10314400A826000078270000A8260000A826000072
:10315400A8260000A8260000A8260000C028000019
:1031640040270000A8260000A8260000A82600008A
:10317400A826000078270000A8260000A826000042
:1031840040270000F0290000AC290000AC29000011
:10319400AC290000AC290000AC290000AC290000D7
:1031A400AC290000AC290000AC290000AC290000C7
:1031B400AC290000F8290000AC290000AC2900006B
:1031C400AC290000AC290000F8290000AC2900005B
:1031D400AC290000AC290000AC290000AC29000097
:1031E400BC280000F0290000AC290000AC29000034
:1031F400AC290000AC290000F8290000AC2900002B
:10320400AC290000F02900004027000094290000A8
:1032140094290000942900009429000094290000B6
:1032240094290000942900009429000094290000A6
:1032340094290000942900007827000094290000B4
:1032440094290000942900009429000078270000A4
:103254009429000094290000942900009429000076
:1032640094290000C0280000402700009429000091
:103274009429000094290000942900007827000074
:0C3284009429000094290000402700005D
:10329000537570657220507570657220576F726437
:0532A0002121212000A6
:0C32A800C44A0000C84A0000CC4A0000E4
:00000001FF
