:10000000974100009381818117410000130181FF16
:100010001732000013028200170500001305055C6B
:1000200073105530731020341703000013038365D9
:10003000E70003001305007397350000938585FCE6
:1000400017360000130656FD63FCC5008322050029
:1000500023A055001305450093854500E3E8C5FE40
:100060001305807497350000938545FB1736000013
:100070001306C6FA63FCC5008322050023A05500C1
:100080001305450093854500E3E8C5FE130580741C
:1000900097350000938585F817360000130606F89B
:1000A00063FCC5008322050023A05500130545000D
:1000B00093854500E3E8C5FE1305007393050073BF
:1000C0006300B5021306007363FCC50083220500BC
:1000D00023A055001305450093854500E3E8C5FEC0
:1000E00017350000130585F397350000938505F358
:1000F0006378B5002320050013054500E36CB5FEC9
:1001000017350000130585F197350000938505F13B
:100110006378B5002320050013054500E36CB5FEA8
:1001200017350000130585EF97350000938555EFCF
:100130006378B5002320050013054500E36CB5FE88
:1001400017350000130505EE973500009385852DC2
:10015000B385A540232005002322B50013040073B6
:1001600093040073630A94000323040013044400FF
:10017000E70003006FF01FFF130500009305000068
:10018000170300001303833CE7000300170300007C
:0C0190001303834FE70003006F00000022
:10019C00130101FE232E1100B7470000938737018E
:1001AC0083C707002307F100B74700000347E100AE
:1001BC0023A0E7008347E10093F71700638407044B
:1001CC00B74700009387170183C70700A306F10008
:1001DC00A30701006F000002B74700009387C70018
:1001EC0083C707002306F1008347F10093871700AC
:1001FC00A307F1000347F1008347D100E36EF7FC3E
:10020C006F0080078347E10093F72700638607069A
:10021C00B737000013850700EF0040469307050031
:10022C002324F100B737000023AC07006F00C00394
:10023C00B737000003A78701B74700009387C700B3
:10024C00B7360000938606003387E60003470700A5
:10025C002380E700B737000083A7870113871700B7
:10026C00B737000023ACE700B737000003A78701BE
:10027C0083278100E36EF7FA130000008320C1018D
:10028C001301010267800000130101FD23261102F6
:10029C002326A100B7470000938707050327C10059
:1002AC0023A0E700B747000093870702130710004D
:1002BC0023A0E700B737000013850700EF00003CD0
:1002CC0093070500232EF100B737000023AC07007D
:1002DC006F00C003B737000003A78701B7470000C2
:1002EC009387C700B7360000938606003387E60075
:1002FC00034707002380E700B737000083A7870177
:10030C0013871700B737000023ACE700B73700009E
:10031C0003A787018327C101E36EF7FA13000000DE
:10032C008320C1021301010367800000130101FD4A
:10033C00232611022326A1002324B1000327C10088
:10034C00B7070080938737006316F700EFF05FE480
:10035C006F00C0030327C100B707008093877700A5
:10036C006316F702B74700009387070413071000C2
:10037C0023A0E700B70701001385F7FFEFF0DFF0CC
:10038C0093070008F3B74734232EF100832781002D
:10039C00138507008320C10213010103678000004D
:1003AC00130101FFB74700009387070537070100CA
:1003BC001307F7FF23A0E700232601008327C100C2
:1003CC0093E747002326F1008327C10093E707201A
:1003DC002326F100B74700009387C7020327C1000B
:1003EC0023A0E700232401008327810093E7070162
:1003FC002324F1008327810093E707082324F100CD
:10040C00B7470000938747030327810023A0E70029
:10041C00930710002322F1008327410093E7470044
:10042C002322F100B74700009387070303274100FD
:10043C0023A0E700B74700009387C70313071000FA
:10044C0023A0E700130000001301010167800000E6
:10045C00130101FFB74700009387070B1307F00F39
:10046C0023A0E700B74700009387070D1307F00799
:10047C0023A0E700B74700009387870D13070006FA
:10048C0023A0E70023260100B74700009387C70885
:10049C000327C10023A0E700130000001301010192
:1004AC0067800000130101FEF3774430232EF10026
:1004BC0093070008F3B74730232CF100F36744305F
:1004CC00232AF10093070008F3A747302328F100F3
:1004DC00F36704302326F10013000000130101021E
:1004EC0067800000B7370000238E0700B737000085
:1004FC0083C7C70193E7170013F7F70FB73700004F
:10050C00238EE700B74700009387D70037370000EA
:10051C000347C7012380E700B747000093875701C3
:10052C00130700042380E700B74700009387670197
:10053C00238007001300000067800000130101FEF8
:10054C00232E1100EFF0DFE5EFF09FF0EFF09FF5B9
:10055C00EFF05FF9B747000093870702130710000D
:10056C0023A0E700B7470000938707081307100084
:10057C0023A0E700B737000013850700EF00001039
:10058C00930705002324F100232601006F000003CC
:10059C00B74700009387C700373700009306070062
:1005AC000327C1003387E600034707002380E700D9
:1005BC008327C100938717002326F100832781002E
:1005CC000327C100E366F7FC6F000000130101FC78
:1005DC0023201100232251002324610023267100C3
:1005EC002328A100232AB100232CC100232ED100E3
:1005FC002320E1022322F1022324010323261103E9
:10060C002328C103232AD103232CE103232EF10336
:10061C0073252034F325103417030000130343D142
:10062C00E70003007310153483200100832241007E
:10063C00032381008323C10003250101832541018C
:10064C00032681018326C10103270102832741026E
:10065C00032881028328C102032E0103832E410348
:10066C00032F8103832FC103130101047300203076
:10067C006F000000678000006780000093773500F2
:10068C00638A07028347050063820702930705000C
:10069C009387170013F737006300070203C707009F
:1006AC00E31807FE3385A740678000009307050019
:1006BC006FF05FFF9307050083A607003707FFFE67
:1006CC001307F7EF3387E60093C6F6FF3377D700AF
:1006DC00B7868080938606083377D70063160702A7
:1006EC00B705FFFE9385F5EF138606009387470049
:1006FC0083A607003387B60093C6F6FF3377D7007F
:10070C003377C700E30407FE03C70700630807003D
:10071C009387170003C70700E31C07FE3385A74028
:04072C0067800000E2
:10073000537570657220507570657220576F7264C2
:05074000212121200031
:00000001FF
