:10000000975100009381812B17810000130181FF1C
:1000100017520000130282AA171500001305856A03
:10002000731055307310203417130000130303743A
:10003000E700030017450000130545C7974500007A
:10004000938545FC17460000130616FD63FCC500AA
:100050008322050023A05500130545009385450024
:10006000E3E8C5FE174500001305C5C59745000028
:100070009385C5FA17460000130646FA63FCC500CF
:100080008322050023A055001305450093854500F4
:10009000E3E8C5FE174500001305C5C297550000EB
:1000A0009385C5A117560000130606A263FCC50080
:1000B0008322050023A055001305450093854500C4
:1000C000E3E8C5FE173500001305853697350000B7
:1000D000938505366302B50217460000130606BD78
:1000E00063FCC5008322050023A0550013054500CD
:1000F00093854500E3E8C5FE17450000130505F2AA
:10010000975500009385859B6378B50023200500F3
:1001100013054500E36CB5FE175500001305059A5D
:1001200097550000938585996378B50023200500D5
:1001300013054500E36CB5FE175500001305C5987F
:10014000975500009385859E6378B50023200500B0
:1001500013054500E36CB5FE175500001305059D1A
:1001600097550000938585DCB385A54023200500C5
:100170002322B500173400001304842B97340000A9
:100180009384042B630A94000323040013044400A3
:10019000E70003006FF01FFF130500009305000048
:1001A000170300001303434DE7000300171300007B
:0C01B0001303035CE70003006F00000075
:1001BC00130101FF378300001303030E03234300D5
:1001CC0023266100378300001303030E032303006F
:1001DC0023246100378300001303030E0323430021
:1001EC00032EC100E3186EFC0323C10013080300A7
:1001FC0093080000931708001307000003288100E0
:10020C0013060800930600003365C700B3E5D7005A
:10021C001307050093870500130507009385070056
:10022C001301010167800000130101FE232E110050
:10023C00B78700009387370183C707002307F100B6
:10024C00B78700000347E10023A0E7008347E100E4
:10025C0093F7170063840704B7870000938717018F
:10026C0083C70700A303F100A30701006F0000027E
:10027C00B78700009387C70083C707002303F100EB
:10028C008347F10093871700A307F1000347F100A0
:10029C0083477100E36EF7FC6F0080078347E10032
:1002AC0093F7270063860706B747000013850700FE
:1002BC00EF10D008930705002324F100B757000076
:1002CC0023A807AC6F00C003B757000003A707AD06
:1002DC00B78700009387C700B746000093860600D7
:1002EC003387E600034707002380E700B757000079
:1002FC0083A707AD13871700B757000023A8E7ACF7
:10030C00B757000003A707AD83278100E36EF7FA08
:10031C00130000008320C10113010102678000005B
:10032C00130101FD232611022326A100B78700002B
:10033C00938707050327C10023A0E700B7870000B8
:10034C00938707021307100023A0E700B7470000AC
:10035C0013850700EF10807E93070500232EF10014
:10036C00B757000023A807AC6F00C003B7570000B5
:10037C0003A707ADB78700009387C700B7460000F7
:10038C00938606003387E600034707002380E700C7
:10039C00B757000083A707AD13871700B7570000A6
:1003AC0023A8E7ACB757000003A707AD8327C1010B
:1003BC00E36EF7FA13000000130000008320C10263
:1003CC001301010367800000130101FD23261102B4
:1003DC002326A1002324B1000327C100B707008006
:1003EC00938737006316F700EFF01FE46F00C0032C
:1003FC000327C100B7070080938777006316F702C5
:10040C00B7870000938707041307100023A0E700A9
:10041C00B70701001385F7FFEFF09FF09307000873
:10042C00F3B74734232EF10083278100138507008F
:10043C008320C1021301010367800000B75700003D
:10044C00238A07ACB757000083C747AD93E7170063
:10045C0013F7F70FB7570000238AE7ACB7870000F4
:10046C009387D70037570000034747AD2380E70039
:10047C00B787000093875701130700042380E70018
:10048C00B7870000938767012380070013000000E3
:10049C0067800000130101FE232E1100232C810024
:1004AC00232A9100B757000003A607B283A647B2D0
:1004BC0093070600B3E7D700639E0700EFF05FCF0A
:1004CC001307050093870500B756000023A0E6B27A
:1004DC0023A2F6B2EFF0DFCD2324A1002326B10036
:1004EC00B757000003A507B283A547B203278100C5
:1004FC008327C1003306A7401308060033380701D1
:10050C00B386B740B38706419386070013070600EE
:10051C0093870600B7163D00938606903386D70264
:10052C0093060000B306D7023306D600B7163D007B
:10053C0093860690B305D702B334D7021384050013
:10054C00B30796009384070037666202130606A071
:10055C00930600001305040093850400EF10D003EC
:10056C001307050093870500930707001385070001
:10057C008320C10103248101832441011301010261
:10058C0067800000130101FE2326A1002324B10083
:10059C002322C100232E01006F00C00413000000B1
:1005AC00B78700009387E70083C7070093F7F70F1F
:1005BC0093F7170093F7F70FE39407FE8327C10116
:1005CC00032781003307F700B78700009387C70024
:1005DC00034707002380E7008327C1019387170097
:1005EC00232EF1008327C10103274100E3E8E7FA3A
:1005FC0093070000138507001301010267800000B8
:10060C00130101FF2326A100B757000083A787AB76
:10061C000327C1006302F702B757000083A7C7ABDB
:10062C000327C100630AF700B757000083A707AC84
:10063C000327C1006316F700930700006F008000CA
:10064C009307F0FF13850700130101016780000079
:10065C00130101FF2326A100930710001385070047
:10066C001301010167800000130101FF2326110013
:10067C00EFF0DFDCEF004001130000008320C1002D
:10068C001301010167800000130101F6232E1108EC
:10069C00232C8108232A9108232821092326310998
:1006AC00B737000013850743EF10C068B757000039
:1006BC0037570000130707A423A2E7AEB757000073
:1006CC00375700001307C7A723A0E7AEB7570000A2
:1006DC0083A707AE37570000032747AE23A0E700D8
:1006EC00B757000083A707AE23820700B757000057
:1006FC0083A707AE130720002384E700B757000039
:10070C0083A707AE1307800223A6E700B7570000A4
:10071C0083A707AE13870701B737000093870746F7
:10072C00938607009307F001138607009385060054
:10073C0013050700EF20C0369307810337370000FD
:10074C001307074803230700832847000328870063
:10075C000325C7008325070103264701832687014C
:10076C0023A0670023A2170123A4070123A6A70037
:10077C0023A8B70023AAC70023ACD7008356C70110
:10078C00239ED7000347E701238FE700B7470000FC
:10079C009387C7071307A00023AEE732EFF09FCF74
:1007AC00930705001389070093090000B757000051
:1007BC0023AC27AD23AE37ADB73700001385074AFE
:1007CC00EF10405793071000232AF1066F004024C6
:1007DC00EF00502CEF005027930720002328F10640
:1007EC0093073000232EF1069307410037370000A2
:1007FC001307474B03230700832847000328870070
:10080C000325C7008325070103264701832687019B
:10081C0023A0670023A2170123A4070123A6A70086
:10082C0023A8B70023AAC70023ACD7008356C7015F
:10083C00239ED7000347E701238FE700930710009F
:10084C00A305F106130741009307810393050700E5
:10085C0013850700EF0090539307050093B717001B
:10086C0093F7F70F13870700B757000023A6E7AEDF
:10087C006F00400403270107930707009397270095
:10088C003387E7008327C107B307F7402326F10618
:10089C00832701071307C106130607008325C10729
:1008AC0013850700EF00D02D8327010793871700CE
:1008BC002328F106832701070327C107E3CCE7FAB6
:1008CC00832701070327C106930607001386070039
:1008DC00B74700009385C707B7470000138587010A
:1008EC00EF00D02DB757000083A707AE1385070084
:1008FC00EF00807793071004A30DF1066F00800AB8
:10090C008347B1079305300413850700EF0090422D
:10091C0093070500138707008347B106631EF7068C
:10092C009307B1069385070013050000EF005018DC
:10093C0093074100373700001307474D0323070087
:10094C0083284700032887000325C7008325070158
:10095C00032647018326870123A0670023A21701E2
:10096C0023A4070123A6A70023A8B70023AAC70026
:10097C0023ACD7008356C701239ED7000347E7015A
:10098C00238FE70083274107232EF106B75700007A
:10099C000327410723A4E7AE8347B10793871700CA
:1009AC00A30DF106B757000083C717AF0347B10774
:1009BC00E3F8E7F4832701070327C107B307F7021E
:1009CC00232EF1068327C1060327C107B347F7027D
:1009DC002328F1068327C1060327C1073307F740F5
:1009EC0093070700939737003387E7408327010766
:1009FC00B307F740232EF106930701071385070071
:100A0C00EF0000788327410793871700232AF1060C
:100A1C0003274107B7470F0093870724E3DAE7DA88
:100A2C00EFF05FA793070500138407009304000001
:100A3C00B757000023AC87AE23AE97AEB737000094
:100A4C001385474FEF10002FB73700001385874FE2
:100A5C00EF10402EB73700001385474FEF10802D55
:100A6C00B757000083A787AE93850700B737000000
:100A7C0013850753EF20001F93055000B737000074
:100A8C001385C754EF20001EB757000083A7C7AECD
:100A9C0093850700B737000013858756EF20801C1D
:100AAC0093051000B73700001385C754EF20801B47
:100ABC00B757000083C707AF93850700B73700000F
:100ACC0013854758EF20001A93051004B737000020
:100ADC001385075AEF200019B757000083C717AFCB
:100AEC0093850700B73700001385C75BEF2080178D
:100AFC0093052004B73700001385075AEF208016A2
:100B0C00B74700009387870183A7070293850700E7
:100B1C00B73700001385875DEF20C0149305700074
:100B2C00B73700001385C754EF20C013B747000038
:100B3C009387C70783A7C73393850700B737000090
:100B4C001385475FEF200012B7370000138507614C
:100B5C00EF10401EB73700001385C763EF10801DE0
:100B6C00B757000083A707AE83A70700938507003C
:100B7C00B737000013858764EF20C00EB73700002D
:100B8C0013854766EF10001BB757000083A707AE0D
:100B9C0083C7470093850700B73700001385876923
:100BAC00EF20400C93050000B73700001385C754A5
:100BBC00EF20400BB757000083A707AE83C7870011
:100BCC0093850700B73700001385476BEF2080092A
:100BDC0093052000B73700001385C754EF20800819
:100BEC00B757000083A707AE83A7C70093850700FC
:100BFC00B73700001385076DEF20C0069305100171
:100C0C00B73700001385C754EF20C005B757000055
:100C1C0083A707AE9387070193850700B7370000BA
:100C2C001385C76EEF200004B7370000138587705B
:100C3C00EF104010B737000013850774EF10800FCA
:100C4C00B757000083A747AE83A70700938507001B
:100C5C00B737000013858764EF20C000B73700005A
:100C6C0013854775EF10000DB757000083A747AEEB
:100C7C0083C7470093850700B73700001385876942
:100C8C00EF10507E93050000B73700001385C75452
:100C9C00EF10507DB757000083A747AE83C787007E
:100CAC0093850700B73700001385476BEF10907BD7
:100CBC0093051000B73700001385C754EF10907AD6
:100CCC00B757000083A747AE83A7C70093850700DB
:100CDC00B73700001385076DEF10D078930520010E
:100CEC00B73700001385C754EF10D077B757000003
:100CFC0083A747AE9387070193850700B73700009A
:100D0C001385C76EEF101076B73700001385877008
:100D1C00EF1040028327010793850700B7370000C7
:100D2C0013854779EF10107493055000B737000006
:100D3C001385C754EF1010738325C107B737000014
:100D4C001385077BEF1010729305D000B7370000A6
:100D5C001385C754EF1010718327C10693850700C4
:100D6C00B73700001385C77CEF10D06F9305700068
:100D7C00B73700001385C754EF10D06E8347B10608
:100D8C0093850700B73700001385877EEF10906DB1
:100D9C0093051000B73700001385C754EF10906C03
:100DAC009307810393850700B7470000138547809D
:100DBC00EF10506BB747000013850782EF00907758
:100DCC009307410093850700B7470000138587857B
:100DDC00EF105069B747000013854787EF009075F7
:100DEC00B73700001385474FEF00D074B75700009A
:100DFC0003A787AF83A7C7AFB756000003A586AD7F
:100E0C0083A5C6AD3306A740130806003338070187
:100E1C00B386B740B38706419386070013070600D5
:100E2C0093870600B756000023A0E6B023A2F6B0C5
:100E3C00B757000003A707B083A747B01306803E3F
:100E4C00930600001305070093850700EF00D0748C
:100E5C001307050093870500930707009385070088
:100E6C00B74700001385C78AEF10D05FB757000053
:100E7C0003A707B083A747B093860700639A0602BF
:100E8C009386070063980600B7871E009387F74781
:100E9C0063E0E702B74700001385C78CEF00906949
:100EAC00B747000013854790EF00D0686F00C0195A
:100EBC00B757000003A707B083A747B01305070077
:100ECC0093850700EF00D0351307050093870500C5
:100EDC00B746000003A6869883A6C698130507009C
:100EEC0093850700EF001008130705009387050092
:100EFC00B756000023A4E6B023A6F6B0B7570000FF
:100F0C0003A707B083A747B0130507009385070015
:100F1C00EF0010311307050093870500B74600005A
:100F2C0003A6869883A6C698130507009385070029
:100F3C00EF00500313070500938705001306070005
:100F4C0093860700B747000003A5879883A5C79829
:100F5C00EF0050011307050093870500B7560000FA
:100F6C0023A8E6B023AAF6B0B757000003A707B131
:100F7C0083A747B1B746000003A6069983A64699F6
:100F8C001305070093850700EF00C07D13070500CC
:100F9C0093870500B756000023ACE6B023AEF6B03D
:100FAC00B747000013854792EF10D04BB75700009E
:100FBC0003A787B083A7C7B0130507009385070065
:100FCC00EF0090219307050093850700B7470000B9
:100FDC0013854795EF101049B74700001385C79547
:100FEC00EF105048B757000003A707B183A747B1CC
:100FFC001305070093850700EF00101E93070500EB
:10100C0093850700B747000013854795EF1090456F
:10101C00B747000013854797EF10D044B75700002F
:10102C0003A787B183A7C7B11305070093850700F2
:10103C00EF00901A9307050093850700B74700004F
:10104C0013854795EF101042130000008320C1094F
:10105C000324810983244109032901098329C10837
:10106C001301010A67800000130101FD2326110200
:10107C002326A1008327C10083A70700232EF1009C
:10108C00B757000003A707AE8327C10083A707004B
:10109C00938607009307C003138607009305070088
:1010AC0013850600EF10D01F8327C10013075000D3
:1010BC0023A6E7008327C10003A7C7008327C1012C
:1010CC0023A6E7008327C10003A707008327C101DC
:1010DC0023A0E7008327C10113850700EF00C01090
:1010EC008327C10183C74700639207068327C10189
:1010FC001307600023A6E7008327C10003C78700FE
:10110C008327C10193878700938507001305070088
:10111C00EF00001AB757000083A707AE03A707001C
:10112C008327C10123A0E7008327C10103A7C700C0
:10113C008327C1019387C700138607009305A0007E
:10114C0013050700EF00C0236F0080028327C10046
:10115C0083A707000327C100938607009307C003EA
:10116C00138607009385060013050700EF10501334
:10117C00130000008320C1021301010367800000EB
:10118C00130101FE2326A1008327C10083A70700BA
:10119C009387A700232EF100B757000003C707AFB2
:1011AC00930710046316F7028327C1019387F7FF97
:1011BC00232EF100B757000083A787AE0327C10188
:1011CC003307F7408327C10023A0E700A30D0100DC
:1011DC008347B101E39207FC1300000013000000E9
:1011EC001301010267800000130101FE232E110080
:1011FC002326A100B757000083A707AE638C070016
:10120C00B757000083A707AE03A707008327C100C9
:10121C0023A0E700B757000003A787AEB75700001D
:10122C0083A707AE9387C7001386070093050700B3
:10123C001305A000EF00C014130000008320C101AF
:10124C001301010267800000130101FFB757000072
:10125C0083C707AF9387F7FB93B7170093F7F70F85
:10126C002326F100B757000003A7C7AE8327C100A0
:10127C003367F700B757000023A6E7AEB757000057
:10128C0013072004A388E7AE13000000130101012B
:10129C0067800000B7570000130710042388E7AEDF
:1012AC00B757000023A607AE1300000067800000AC
:1012BC00130101FE232E1100930705002324B10016
:1012CC00A307F100832781000347F1002380E70087
:1012DC008347F10013850700EF00403A93070500A0
:1012EC006398070083278100130730002380E700F1
:1012FC008347F10013074000636CF7061397270030
:10130C00B747000093878799B307F70083A70700B7
:10131C006780070083278100238007006F0040054A
:10132C00B757000003A787AE9307400663D8E700C2
:10133C0083278100238007006F00800383278100AF
:10134C00130730002380E7006F00800283278100A1
:10135C00130710002380E7006F00800183278100B2
:10136C00130720002380E7006F00800013000000AB
:10137C00130000008320C1011301010267800000EB
:10138C00130101FE2326A1002324B1002322C10056
:10139C008327C10093872700232EF10003278100A8
:1013AC008327C1013307F7008327410023A0E700FF
:1013BC00130000001301010267800000130101FEFD
:1013CC002326A1002324B1002322C1002320D10015
:1013DC008327410093875700232CF1008327810139
:1013EC00939727000327C100B307F70003270100D9
:1013FC0023A0E70083278101939727000327C100CF
:10140C003307F700832781019387170093972700F1
:10141C008326C100B387F6000327070023A0E7004B
:10142C00832781019387F700939727000327C10037
:10143C00B307F7000327810123A0E700832781016D
:10144C00232EF1006F0080030327810193074006D0
:10145C00B307F702032781003307F7008327C10185
:10146C0093972700B307F7000327810123A0E70018
:10147C008327C10193871700232EF1008327810155
:10148C00938717000327C101E3D0E7FC03278101F1
:10149C0093074006B307F702032781003307F700D1
:1014AC00832781019387F7FF93972700B307F700F2
:1014BC0003A707008326810193074006B387F60232
:1014CC0083268100B386F600832781019387F7FF7B
:1014DC001307170093972700B387F60023A0E700A4
:1014EC0083278101939727000327C100B307F700D7
:1014FC0083268101130740063387E6021307873ED4
:10150C0083268100B386E60003A7070083278101A9
:10151C0093972700B387F60023A0E700B757000086
:10152C001307500023A4E7AE1300000013010102BF
:10153C0067800000130101FE930705001387050067
:10154C00A307F100930707002307F1008347F1007D
:10155C00A30FF1008347F101230FF1000347E101D1
:10156C008347E1006306F700930700006F0040011A
:10157C00B75700000347F1012388E7AE930710002B
:10158C00138507001301010267800000130101FDA0
:10159C00232611022326A1002324B1009307200047
:1015AC00232EF1006F0000058327C1010327C10022
:1015BC00B307F70083C607008327C1019387170081
:1015CC0003278100B307F70083C707009385070043
:1015DC0013850600EFF01FF693070500639C0700C8
:1015EC0093071004A30DF1008327C1019387170003
:1015FC00232EF1000327C10193072000E3D6E7FA5D
:10160C000347B1019307600563FCE7000347B10191
:10161C009307900563E6E70093077000232EF10013
:10162C000347B101930720056316F70093071000D9
:10163C006F00C003832581000325C100EF00805992
:10164C00930705006352F0028327C101938777004B
:10165C00232EF100B75700000327C10123A4E7AEE6
:10166C00930710006F00800093070000138507009C
:10167C008320C1021301010367800000130101FEE6
:10168C0093070500A307F1008347F100A30FF100B6
:10169C000347F101930720006316F700930710002E
:1016AC006F008000930700001385070013010102EF
:1016BC0067800000130101FC23201100232251003C
:1016CC0023246100232671002328A100232AB100C2
:1016DC00232CC100232ED1002320E1022322F1026E
:1016EC0023240103232611032328C103232AD10316
:1016FC00232CE103232EF10373252034F32510341E
:10170C0017F3FFFF130383CCE700030073101534AA
:10171C008320010083224100032381008323C10025
:10172C000325010183254101032681018326C10183
:10173C000327010283274102032881028328C10267
:10174C00032E0103832E4103032F8103832FC10337
:10175C0013010104730020306F000000678000004B
:10176C0067800000139816001358580193981500C1
:10177C0093D85801B3C3D50093D3F3019393F301DA
:10178C009302F07F638C5820630208246304582270
:10179C0063860822B38808419388F83F9395C50067
:1017AC0093D5C5009396C60093D6C6003707100094
:1017BC00B3E5E500B3E6E6003337C5003307D700E1
:1017CC00B385E5403305C54063D4050233270500D6
:1017DC00B385B500B385E500B385D5003305A50009
:1017EC003305C5003337C500B385E5009388F8FF92
:1017FC0063DE581A6354101D9395A50013576501A9
:10180C00B3E5E5001315A50033D8D502330ED80285
:10181C00B385C5413307C802B337C802333EE50070
:10182C00B387C7013305E540B385F54063DC05009C
:10183C001308F8FF3305C500B385D500B332C500D6
:10184C00B38555009395A50093526501B38555005A
:10185C001315A500B3D2D5023387D202B385E54068
:10186C003387C202B3B7C202333EE500B387C70168
:10187C003305E540B385F54063DC05009382F2FF48
:10188C003305C500B385D500333EC500B385C5010E
:10189C001318A800330858009395B500135E550132
:1018AC00B385C5011315B500B3D2D5023387D20267
:1018BC00B385E5403387C202B3B7C202333EE500BD
:1018CC00B387C7013305E540B385F54063DC0500FC
:1018DC009382F2FF3305C500B385D500333EC500B6
:1018EC00B385C5019395B500135E5501B385C5014C
:1018FC001315B50033D3D5023307D302B385E540B6
:10190C003307C302B337C302333EE500B387C701C5
:10191C003305E540B385F54063DC05001303F3FFA5
:10192C003305C500B385D500333EC500B385C5016D
:10193C00939252011313A300B38262009395B500E6
:10194C00135E5501B385C5011315B50033D3D5020C
:10195C003307D302B385E5403307C302B337C30261
:10196C00333EE500B387C701B385F54093D5F54108
:10197C003303B30093984801B305180113551300B2
:10198C0033055500137313003305650033376500B9
:10199C00B385E500B3857500678000009395C5009D
:1019AC0063085802B3E5A50063940502B705F07F00
:1019BC006F0000019396C600639C0600930500001F
:1019CC00B38575001305000067800000E39008FEE6
:1019DC00B705F87F6FF01FFF63CC050213D64501E6
:1019EC00130616C0634606021307F0013307C740FF
:1019FC0063440702135555019395B5003365B50043
:101A0C00B70600803365D5003355E50067800000CC
:101A1C0013050000678000001305F0FF67800000CD
:101A2C00638A050A1307000013D605016316060026
:101A3C00130707019395050113D68501631606005C
:101A4C00130787009395850013D6C501631606000E
:101A5C00130747009395450013D6E501631606005E
:101A6C00130727009395250063C60500130717007D
:101A7C00939515009346F7FF3356D5001356160071
:101A8C00B3E5C5003315E5009386E643131645010F
:101A9C001355B500139755013365E50093D5B50083
:101AAC0093964601332706003306C600B32706007B
:101ABC003306C6003306E6003336C0003376F60034
:101ACC003305C500B337C500B385F500B385D50024
:101ADC0067800000E30E05FE9306D0411356050106
:101AEC006316060013150501938606FF1356850130
:101AFC006316060013158500938686FF1356C501E1
:101B0C0063160600131545009386C6FF1356E501B0
:101B1C0063160600131525009386E6FF6346050041
:101B2C00131515009386F6FF9355B5001315550143
:101B3C0093964601B385D500678000009305050098
:101B4C0093763500638C0602034605006300060895
:101B5C0013051500937635006382060203460500D3
:101B6C006306060613051500937635006388060098
:101B7C0003460500630C0604130515003706010126
:101B8C00130616109316760003270500130545005F
:101B9C00B307C7401347F7FFB3F7E700B3F7D70016
:101BAC00E38407FE1305C5FF139787016310070233
:101BBC001305150013970701631A07001305150089
:101BCC001397870063140700130515003305B54000
:101BDC00678000003366B500137636006312060486
:101BEC00B702FFFE9382F2EFB786808093860608D9
:101BFC000327050083A705006314F702330757007A
:101C0C0093C7F7FFB3F7E700B3F7D7001305450009
:101C1C0093854500E38E07FC1305C5FF9385C5FF2F
:101C2C00034605001305150083C6050093851500B2
:101C3C006314D600E31606FE3305D6406780000019
:101C4C00130101FE232631019309050013850600BB
:101C5C00232C8100232A910023282101232E1100FB
:101C6C00138906009384050013040600EFE05F99C6
:101C7C00634C0504338684021305000063709602DE
:101C8C008320C10103248101832441010329010123
:101C9C008329C100130101026780000093850900AC
:101CAC0013050900EFE01F8E8320C101032481017D
:101CBC003355950203290101832441018329C10075
:101CCC0013010102678000008320C10103248101FC
:101CDC0083244101032901018329C100130500005C
:101CEC001301010267800000130101FE9307050038
:101CFC009386050013061000930510001305F100E0
:101D0C00232E1100A307F100EFF09FF3630A0500E7
:101D1C000345F1008320C10113010102678000001B
:101D2C001305F0FF6FF01FFFB757000083A5C7AB7B
:101D3C006FF09FFB130101FFB757000023229100A6
:101D4C0083A4C7AB232611002324810013040500B0
:101D5C00EFF0DFDE13060500930504001385040085
:101D6C00EFE05F829307F0FF630EF5000324810020
:101D7C008320C100832441001305A000130101013D
:101D8C006FF09FFA8320C10003248100832441005B
:101D9C0013010101678000009307050013880500FB
:101DAC00639A060E13074000636AC702930630005D
:101DBC00630ED63A6302E63A13071000630CE6385A
:101DCC00130720006316E65E1397F50113551500F3
:101DDC003365A70093D5150067800000130700003A
:101DEC00638A0522B70600016370D624B70601008A
:101DFC00B3D5C50213570501636CD65093568501B4
:101E0C001377F70F9358850093F8F80F1375F50FA8
:101E1C003383C502330868401318880033880601E1
:101E2C00B357C802939687013383C70233086840BF
:101E3C001318880033080701B357C8023383C7024D
:101E4C00939707013387F600B336D700B386B600F5
:101E5C00330868401318880033880801B357C80248
:101E6C00B388C70293978700B307F700B3B5E700B1
:101E7C00B385D500330818411318880033050501C4
:101E8C003355C5023385A700B337F500B385B700CA
:101E9C0067800000B705010013870600130E0000D1
:101EAC0063F6B60013970601130E0001B705000187
:101EBC006376B700130E8E0013178700B70500105A
:101ECC006376B700130E4E0013174700B70500409A
:101EDC006376B700130E2E00131727001347F7FF76
:101EEC001357F701330EEE009315F80193DE17002C
:101EFC0013070EFEB3EED501135F1800634C0748B1
:101F0C003317E60037C3FF00130303209358670110
:101F1C00B35813039355B70013851500937F17001F
:101F2C00135317003303F301B38518039398480038
:101F3C00B3B5A50293C5F5FFB385150163840F00F6
:101F4C0093DF15001395F500930207009308070023
:101F5C003303B30233836F40B3B5650293D51500D9
:101F6C00B305B5003385E50233B3E502B382A200B5
:101F7C00B3B2A200B388580013850800330565007E
:101F8C00B385A5403385E503B3B5E503B308D501A7
:101F9C0033B5A800B385E501B305B500138515006D
:101FAC003303A702B38E6E4063F6D801B38EEE00F6
:101FBC001385050033B7EE00134717003305E50012
:101FCC001307F0013307C7413357E500630C0732A1
:101FDC001307F7FFB388E60213050700930500000B
:101FEC003303E602B33EE6023383674033BE670039
:101FFC0093070300B388D801330818413308C8414C
:10200C006362D802638E0601130517009305000066
:10201C00678000003355C5029305000067800000FF
:10202C00E3F4C7FE6780000063F6C51AB70501002C
:10203C00930606006376B60093160601130700019B
:10204C00B705000163F6B600130787009396860068
:10205C00B705001063F6B6001307470093964600C9
:10206C00B705004063F6B6001307270093962600C9
:10207C0093C6F6FF93D6F6013307D700930607FEF7
:10208C0063CA062C3398D700930700003316E6007A
:10209C00B7C8FF009356660193880820B3D8D802BE
:1020AC009356B60093851600137716001355160039
:1020BC003305E500B386180393984800B3B6B6020F
:1020CC0093C6F6FFB38616016304070013D71600F8
:1020DC009398F60093050600130306003305D5020A
:1020EC003307A740B3B6E60293D61600B386D800E2
:1020FC003387C60233B5C602B385E500B3B5E50038
:10210C003303B30093080300B388A800B3861641C9
:10211C00B3880603B3B60603B385F800B3B815014C
:10212C00B3860601B386D800138516003307A602C2
:10213C003387E74063F6E5003307C70013850600D5
:10214C003336C700134716003305E500930500002E
:10215C0067800000678000001397E5011355250088
:10216C003365A70093D5250067800000B7555555FA
:10217C0093855555B386050333B7A5023307D700AE
:10218C00B336D700B387A502B387E70033B6E700B1
:10219C00B3B50503B385B6003306B600B387C700E5
:1021AC0033B8C7003307E60093871700B306E8007F
:1021BC0093B717003337C7003385D7003307B70001
:1021CC00B3B506013387E500B335F500B385E500FB
:1021DC0067800000B3D5C502B708010013050600DF
:1021EC00B386C5023308D840637616011315060171
:1021FC0013070001B70600016376D50013078700AB
:10220C0013158500B70600106376D5001307470039
:10221C0013154500B70600406376D5001307270059
:10222C00131525001345F5FF1355F5013307A700CA
:10223C00930607FE63C006143393D7009307000080
:10224C003316E60037C8FF009356660113080820C2
:10225C003358D8029356B600138516001377160020
:10226C00135E1600330EEE00B30608031318480075
:10227C00B3B6A60293C6F6FFB38606016304070045
:10228C0013D716001398F6001305060093080600E2
:10229C00330EDE023307C741B3B6E60293D61600FF
:1022AC00B306D8003387C60233BEC6023305E50039
:1022BC003335E500B388A800138808003308C8013B
:1022CC00B386064133886602B3B66602B308F800DB
:1022DC0033B80801B3866600B306D8001385160020
:1022EC003307A6023387E74063F6E8003307C700DD
:1022FC00138506003336C700134716003305E50077
:10230C006780000013050000930500006FF05FCF9D
:10231C00B387C50213150501135505013308F840A1
:10232C00131808013307E800B357C702B386C70276
:10233C00939707013307D740131707013305E500BF
:10234C003355C5023385A700B337F500B385B70005
:10235C00678000009305F00193D61700B385E54024
:10236C00B3D6B6003318E80033E80601B397E7009C
:10237C006FF0DFD11305F00193D617003305E5405C
:10238C00B3D6A6003313E80033E36600B397E70037
:10239C006FF01FEB1307F0013307C741935516007D
:1023AC00B3D5E5003397C60133E7E5006FF09FB571
:1023BC00130500009305000067800000130305005F
:1023CC0093880500639C06109307400063E6C704DE
:1023DC0013073000630CE63E6304F64893071000C5
:1023EC00630AF64693072000631AF66A9397F50181
:1023FC001355150033E5A7003337C5021315150027
:10240C003305A34093F515003333A300B385E540A2
:10241C00B3856540678000001307000063880524BE
:10242C00B70700016374F6263707010033DEC502D7
:10243C0093570501636AE65A1357850113F5F70F95
:10244C009356830093F6F60F1378F30FB305CE0271
:10245C00B387B840939787003307F700B357C70289
:10246C0093958701B38EC7023307D7419317870023
:10247C003305F500B357C502B38EC7029397070116
:10248C003387F500B335B700B385C5013305D541A6
:10249C00131585003385A600B357C50293968700A4
:1024AC00B306D70033B7E6003307B700338EC70245
:1024BC00B305C54193958500B305B800B3D5C502E6
:1024CC00B385B600B3B6D500B386E6003385C50236
:1024DC00B386C602B3B5C5026F004036B70701001C
:1024EC00138706001308000063F6F6001397060125
:1024FC0013080001B70700016376F7001308880082
:10250C0013178700B70700106376F700130848000D
:10251C0013174700B70700406376F700130828002D
:10252C00131727001347F7FF1357F7013308E80079
:10253C00135E13001397F801930708FE336EC7015F
:10254C0013DF180063CE0752B317F60037C5FF0030
:10255C001305052093D56701B355B50213D7B70002
:10256C001305170093FF170093DE1700B38EFE01BF
:10257C003387B502939545003337A7021347F7FF0E
:10258C003307B70063840F00935F17009315F700B0
:10259C009382070013850700B38EEE02B38EDF41E2
:1025AC003337D703135717003387E500B305F7020A
:1025BC00B33EF702B382B200B3B2B200330555009A
:1025CC0093050500B385D5013307B740B305E70381
:1025DC003337E7033385C501B335B5003307E7015E
:1025EC00B385E50013871500B38EE702330EDE4189
:1025FC006376C501330EFE0013870500B337FE006A
:10260C0093C717003307F7009307F001338807418E
:10261C00335707016304073C1307F7FF3388E602BF
:10262C003305C702B337C7023305A340B335A30044
:10263C003308F80033880841B305B84063E6D50287
:10264C00638CB64213071700B386E6023305C70244
:10265C003337C7023305A3403333A300B385E600F9
:10266C00B385B840B385654067800000B355C5029B
:10267C003385C502B3B5C5023305A3403333A3007C
:10268C00B305B040B38565406780000063F2C52098
:10269C00B7060100930706006376D6009317060170
:1026AC0013070001B706000163F6D7001307870074
:1026BC0093978700B706001063F6D70013074700FF
:1026CC0093974700B706004063F6D700130727001F
:1026DC009397270093C7F7FF93D7F7013307F700BA
:1026EC00930707FE63CA07343318F3001305000081
:1026FC003317E600B7C6FF00935767019386062091
:10270C00B3D6F6029357B70093851700137E1700C4
:10271C00135F1700330FCF01B387D6029396460091
:10272C00B3B7B70293C7F7FFB387D70063040E00A4
:10273C0013DE17009396F700930E0700930507001E
:10274C00330FFF02330EEE41B3B7C70393D7170015
:10275C00B387F600B386E70233BEE702B38EDE0022
:10276C00B3BEDE00B385D50193860500B386C601E2
:10277C00B387D740B3860703B3B70703B385A60067
:10278C00B3B6D500B3870701B386F600938716005E
:10279C003308F7023305054163F6A5003305E50060
:1027AC00938706003337E50013471700B387E7001C
:1027BC003385C70233B7C7023305A3403333A300B5
:1027CC00B385E840B385654067800000B755555523
:1027DC0093855555B387150333B7A5023307F70017
:1027EC003335F700B3866502B387E600B3B6E7006E
:1027FC00B3B51503B305B5003385B600B387A70091
:10280C0033BEA7003307E50013881700B306EE00AC
:10281C00933718003337A7003388D7003307B70036
:10282C00B3B6C6013387E600B336F800B386E600CC
:10283C00B386C6023305C802B335C8023305A340BC
:10284C003387B6003333A300B385E840B3856540C6
:10285C0067800000130500009305000067800000EE
:10286C009397E5011355250033E5A7001357E501B0
:10287C0093F7C5FF131525003305A340B367F70085
:10288C003333A300B385F540B38565406780000002
:10289C00B3D7C502B705010093060600B387C7027C
:1028AC00338EF8406376B6009316060113070001C9
:1028BC00B705000163F6B6001307870093968600F0
:1028CC00B705001063F6B600130747009396460051
:1028DC00B705004063F6B600130727009396260051
:1028EC0093C6F6FF93D6F6013307D700930607FE7F
:1028FC0063C40616331ED300130800003317E6001A
:10290C00B7C5FF009356670193850520B3D5D50253
:10291C009356B70013851600937E1700935F17002C
:10292C00B38FDF01B386B50293954500B3B6A6020B
:10293C0093C6F6FFB386B60063840E0093DE1600D2
:10294C009395F600130F070013050700B38FDF02F2
:10295C00B38EFE41B3B6D60393D61600B386D5001C
:10296C00B385E602B3BEE602330FBF00333FBF00B0
:10297C003305E50193050500B385D501B386B64053
:10298C00B385C603B3B6C60333850501B335B500AD
:10299C00B386C601B386D50093851600330EB702F5
:1029AC003308C841637605013308E80093850600B7
:1029BC003337E80013471700B385E5003385C502AC
:1029CC00B3B5C5023305A3403333A3003387B70037
:1029DC00B385E840B38565406780000013050300AC
:1029EC00938508006FF09FC5131705013305CE02C0
:1029FC00135707013385A540131505013305F50061
:102A0C00B357C50293960701B385C702B307B54008
:102A1C0093970701B307F700B3D7C702B387F60044
:102A2C00B3B6D700B386C601B386C6023385C702D8
:102A3C00B3B5C7026FF09FE09306F00193571300F4
:102A4C00B386E640B3D7D7003398E80033E80701E4
:102A5C003315E3006FF0DFC91305F0019355130034
:102A6C003305E540B3D5A500331EEE0033EEC501AA
:102A7C003318E3006FF09FE8E376C5BC6780000075
:102A8C009307F001B3870741135716003357F7002C
:102A9C00B3970601B367F7006FF05FAB6780000078
:102AAC00630006023306C5009307050003C7050043
:102ABC009387170093851500A38FE7FEE398C7FE55
:102ACC00678000008326050213850500930510001E
:102ADC006FF00F9783270501130101FE93F5F50F96
:102AEC00232C8100232E1100A307B100032705001E
:102AFC001304050063800706832645006370D70422
:102B0C000327450193061700232AD500B387E70056
:102B1C002380B7000326450183278501630CF60A41
:102B2C00832704008320C101938717002320F4001E
:102B3C000324810113010102678000009307170031
:102B4C008320C1012320F40003248101130101021D
:102B5C00678000008326C5006384060403264500B5
:102B6C00930717006388C702E37CC7FC8347F10017
:102B7C003387E6002300F700832704008320C1017C
:102B8C00938717002320F400032481011301010211
:102B9C0067800000A3070100E374C7FA6FF01FFD04
:102BAC0083268500638006060326450093071700DD
:102BBC006384C704E376C7F88347F1001317270033
:102BCC003387E6002320F700832704009387170040
:102BDC006FF01FF7E30606F48327C5016386070031
:102BEC0083250501E780070083270400232A0400BE
:102BFC00938717006FF0DFF4A3070100E372C7F4AB
:102C0C006FF09FFB8327C501E38A07F283264500FB
:102C1C00E376D7F2130610009305F100E780070066
:102C2C006FF01FF003264501630C06028327C501D4
:102C3C00130101FF23248100232611001304050036
:102C4C006386070083250501E78007008320C10008
:102C5C00232A040003248100130101016780000072
:102C6C0067800000130101F9232611042324810439
:102C7C00232291041304010523202105232E310363
:102C8C00375300000329C3AB930944009304050098
:102C9C00130509002322B4002324C4002326D400E6
:102CAC002328E400232AF400232C0401232E1401EE
:102CBC00232C34FBEFD0DF991307F500137707FFB4
:102CCC003301E140370700801347F7FF2320E4FC72
:102CDC00373700009307050013860900938504001D
:102CEC001305C4FB130707AD232624FC232E24FD58
:102CFC00232404FC232CE4FC232AF4FC232804FCCA
:102D0C00EF004002130104FB8320C104032481045F
:102D1C0083244104032901048329C10313010107FE
:102D2C0067800000130101FA232C8104232821055C
:102D3C00232E1104232A9104232631052324410533
:102D4C002322510523206105232E7103232C81039B
:102D5C00232A91032328A1032326B1032320050052
:102D6C001384050083C50500130905006382051A49
:102D7C00374A0000374B0000B74A000093090600A1
:102D8C0013041400130ACA9C130BCB9A938ACA9B84
:102D9C006F00C00113050900EFF0DFD393040400AA
:102DAC0083C5040013841400638405169307500232
:102DBC00E392F5FE834704001307700293080000AA
:102DCC00378E00001308B0021305E005371300001E
:102DDC009305000213063002930614006382E70287
:102DEC006366F702638EB7026396C76293E80808BE
:102DFC00138406008347040093061400E392E7FE55
:102E0C00B3E8C801138406006FF0DFFE638E070D74
:102E1C00639EA700B3E86800138406006FF09FFD63
:102E2C0093E80804138406006FF0DFFC13074007D7
:102E3C006382E70C1307A007638EE70A1307A0064B
:102E4C00638AE71A1307C006638AE74C13078006E8
:102E5C0093840600638EE72A1387B7FD1377F70F69
:102E6C0093063005E3EEE6F213172700330747010C
:102E7C00032707006700070037270000B3E8E800C6
:102E8C003747000093F6080833F7E800930B00006F
:102E9C006390062693F628006312070E639E061CA9
:102EAC0013F7480003A50900930500009389490016
:102EBC006302071E13150501135505019305000048
:102ECC00938787FA93F7F70F130700026364F71ED3
:102EDC0037470000939727001307C7B1B387E70064
:102EEC0083A707006780070093E808021384060095
:102EFC006FF05FF083C7060093042400E39E07F491
:102F0C0013050900EFF01FD21305F0FF6F0040020C
:102F1C008327C9006388070003270900832649001B
:102F2C006362D71E13050900EFF0DFCF03250900FC
:102F3C008320C10503248105832441050329010550
:102F4C008329C104032A8104832A4104032B01042D
:102F5C00832BC103032C8103832C4103032D010319
:102F6C00832DC10213010106678000003747000062
:102F7C0093F62800930B0000B3E8E800639606086C
:102F8C0003A7090013F64800938949009356F741AB
:102F9C001305070093850600630A0608131707013B
:102FAC00135707419356F741130507009385060005
:102FBC0063D606083336E0003303D040938787FA94
:102FCC003307E0403303C34093F7F70F9306000237
:102FDC00130507009305030063E0F63EB7460000B7
:102FEC0093972700938606BAB387D70083A7070069
:102FFC006780070083C7060093E828009304240029
:10300C00E39C07E46FF0DFEF9389790093F989FF74
:10301C0003A7090083A6490013F648009389890089
:10302C001305070093850600E31A06F613F68800CD
:10303C00E30006F81375F70F9305000013F7080269
:10304C006316073413F70804E30C07E6938787FA33
:10305C0093F7F70F13070002930B00026362F73428
:10306C003747000093972700130747C2B387E70041
:10307C0083A70700678007009389790093F989FF7C
:10308C0013F7480003A5090083A54900938989001B
:10309C00E31207E213F78800E30407E2938787FA49
:1030AC0093F7F70F130700021375F50F9305000044
:1030BC00E370F7E21304F0FF9307F00F63E6770B6E
:1030CC00639A0B0A9307F0FFE30CF4CC930B81008B
:1030DC0033848B008345040013050900EFF09F9F98
:1030EC00930704001304F4FFE396FBFE6FF05FCB31
:1030FC0093068007B73B0000638AD72C938B8B0514
:10310C006FF05FD9B387E700238007006FF09FE172
:10311C0083C706006380E72C9304240093E84800DF
:10312C00E39C07D26FF0DFDD93FB080893BB1B0019
:10313C00B30B704193FBDBFD03A509009305000065
:10314C00938B3B0293E8081093894900B367B50051
:10315C006392071E930700032304F1009307F00FFB
:10316C0013040000E3FE77F593D58B0013050900DB
:10317C00EFF05F9693850B0013050900EFF09F9518
:10318C006FF05FF4B367B500130D0500938D050068
:10319C00E38207FC378C000033FC8801930C0000A1
:1031AC006F0040059307040013840C00938C0700F8
:1031BC001306A0009306000013050D0093850D0067
:1031CC00EFF0CF9F9307010213070503B387870026
:1031DC001306A0009306000013050D0093850D0047
:1031EC002384E7FEEFE05FBB63840D12130D050033
:1031FC00938D050013841C00E3060CFA93F73C0036
:10320C0013073000E390E7FA93070102B3879701A5
:10321C001307C0022384E7FE938C2C006FF05FF938
:10322C003747000033F7E800930B00006FF09FC6A0
:10323C0003A409009389490083450400E38205B681
:10324C00130414001305090013041400EFF09F88F5
:10325C008345F4FFE39805FE6FF09FB493FB0808D9
:10326C0093BB1B00B30B704193FB0BFD3747000066
:10327C0033F7E800938B0B036FF0DFC1930550021B
:10328C0013050900EFF01F856FF09FB183C509008E
:10329C001305090093894900EFF0DF836FF05FB0ED
:1032AC0093F7880003A70900832609009389490036
:1032BC006390071093F828002320D700E38208AE10
:1032CC00232207006FF0DFAD930BD002B367B5007C
:1032DC00E38207E8930681001307000093777500DB
:1032EC001396D50113553500938707033365A60054
:1032FC0093D535002380F600B367B500130407009F
:10330C009386160013071700E39A07FC6FF0DFDAB9
:10331C0093079000E3ECA7ED6FF01FDA83C706006C
:10332C006384E70C9304240093E81800E39607B237
:10333C006FF01FBDB7270000B3F8F800130781002A
:10334C00130400006F004003B387FA0083C7070023
:10335C009396C5011355450033E5A60093D545005A
:10336C002300F700B367B50093061400130717008A
:10337C00E38407D4138406009377F500E39608FCE6
:10338C00B307FB0083C707006FF09FFC938787FA96
:10339C0093F7F70F13070002930BB002E372F7CC0D
:1033AC0093850B0013050900EFF0CFF26FF05F9FD0
:1033BC002300D7006FF0DF9E930BD00293850B0098
:1033CC0013050900EFF00FF16FF09F9D938B8B07A6
:1033DC006FF05FAC83C7160093E8880093842600D7
:1033EC00E39C07A66FF0DFB183C7160093E82800B3
:1033FC0093043400E39207A66FF09FB0930BD002B6
:10340C006FF0DFD4130D0700930D0300930BD00264
:10341C006FF05FD893840600E39007A46FF05FAE63
:10342C00000000004468727973746F6E6520426509
:10343C006E63686D61726B2C2056657273696F6E6A
:10344C0020322E3120284C616E67756167653A20F9
:10345C00432900004448525953544F4E4520505272
:10346C004F4752414D2C20534F4D452053545249F8
:10347C004E4700004448525953544F4E4520505229
:10348C004F4752414D2C203127535420535452490D
:10349C004E470000457865637574696F6E207374D0
:1034AC00617274732E2E2E004448525953544F4E51
:1034BC00452050524F4752414D2C2032274E44202C
:1034CC00535452494E4700004448525953544F4E9E
:1034DC00452050524F4752414D2C20332752442007
:1034EC00535452494E4700000D00000046696E616E
:1034FC006C2076616C756573206F6620746865202E
:10350C007661726961626C6573207573656420699C
:10351C006E207468652062656E63686D61726B3ACB
:10352C000D000000496E745F476C6F623A202020DA
:10353C0020202020202020202025640D0A000000BF
:10354C00202020202020202073686F756C6420625E
:10355C00653A20202025640D0A000000426F6F6C34
:10356C005F476C6F623A20202020202020202020F2
:10357C002025640D0A00000043685F315F476C6FC3
:10358C00623A202020202020202020202025630D9E
:10359C000A000000202020202020202073686F7556
:1035AC006C642062653A20202025630D0A0000001F
:1035BC0043685F325F476C6F623A202020202020E6
:1035CC00202020202025630D0A0000004172725F2C
:1035DC00315F476C6F625B385D3A202020202020E1
:1035EC002025640D0A0000004172725F325F476C47
:1035FC006F625B385D5B375D3A2020202025640DBF
:10360C000A000000202020202020202073686F75E5
:10361C006C642062653A2020204E756D6265725F85
:10362C004F665F52756E73202B2031300D000000F9
:10363C005074725F476C6F622D3E0D0020205074E9
:10364C00725F436F6D703A202020202020202020B4
:10365C002025640D0A00000020202020202020209E
:10366C0073686F756C642062653A20202028696D40
:10367C00706C656D656E746174696F6E2D646570C8
:10368C00656E64656E74290D00000000202044698D
:10369C007363723A2020202020202020202020201C
:1036AC002025640D0A0000002020456E756D5F43D7
:1036BC006F6D703A20202020202020202025640DC2
:1036CC000A0000002020496E745F436F6D703A2031
:1036DC0020202020202020202025640D0A0000001E
:1036EC0020205374725F436F6D703A20202020208D
:1036FC00202020202025730D0A00000020202020EF
:10370C002020202073686F756C642062653A20203D
:10371C00204448525953544F4E452050524F475213
:10372C00414D2C20534F4D4520535452494E470D7B
:10373C00000000004E6578745F5074725F476C6FC8
:10374C00622D3E0D00000000202020202020202093
:10375C0073686F756C642062653A20202028696D4F
:10376C00706C656D656E746174696F6E2D646570D7
:10377C00656E64656E74292C2073616D65206173B0
:10378C002061626F76650D00496E745F315F4C6F1E
:10379C00633A202020202020202020202025640D8A
:1037AC000A000000496E745F325F4C6F633A202050
:1037BC0020202020202020202025640D0A0000003D
:1037CC00496E745F335F4C6F633A202020202020B9
:1037DC00202020202025640D0A000000456E756D08
:1037EC005F4C6F633A2020202020202020202020B6
:1037FC002025640D0A0000005374725F315F4C6F1A
:10380C00633A202020202020202020202025730D0A
:10381C000A000000202020202020202073686F75D3
:10382C006C642062653A2020204448525953544F0E
:10383C004E452050524F4752414D2C203127535466
:10384C0020535452494E470D000000005374725FD0
:10385C00325F4C6F633A2020202020202020202033
:10386C002025730D0A00000020202020202020207D
:10387C0073686F756C642062653A2020204448524E
:10388C005953544F4E452050524F4752414D2C20C6
:10389C0032274E4420535452494E470D000000002D
:1038AC00457865637574696F6E20656E6473202846
:1038BC00616674657220256C75206D73290A000091
:1038CC004D656173757265642074696D6520746FE4
:1038DC006F20736D616C6C20746F206F6274616902
:1038EC006E206D65616E696E6766756C20726573AE
:1038FC00756C747300000000506C65617365206911
:10390C006E637265617365206E756D626572206F92
:10391C00662072756E7300004D6963726F73656318
:10392C006F6E647320666F72206F6E652072756E99
:10393C00207468726F756768204468727973746F4D
:10394C006E653A2000000000256C750A000000002E
:10395C004468727973746F6E65732070657220534E
:10396C0065636F6E643A2000564158204D495053A0
:10397C0020726174696E67203D2000000000000019
:10398C0080842E410000000000749B402013000036
:10399C002C1300005813000078130000681300006B
:1039AC0030313233343536373839616263646566A9
:1039BC003031323334353637383941424344454659
:1039CC0088320000AC2D0000AC2D0000AC2D0000A6
:1039DC00AC2D0000AC2D0000AC2D0000AC2D000077
:1039EC00AC2D0000AC2D0000AC2D0000AC2D000067
:1039FC00AC2D0000AC2D0000AC2D0000AC2D000057
:103A0C00AC2D0000AC2D0000AC2D0000AC2D000046
:103A1C00AC2D0000AC2D0000AC2D0000AC2D000036
:103A2C00AC2D0000AC2D0000AC2D0000AC2D000026
:103A3C00AC2D0000AC2D0000AC2D0000AC2D000016
:103A4C00AC2D0000AC2D0000AC2D0000AC2D000006
:103A5C00AC2D0000AC2D0000AC2D0000AC2D0000F6
:103A6C00AC2D0000AC2D0000AC2D0000AC2D0000E6
:103A7C00AC2D0000AC2D0000AC2D0000AC2D0000D6
:103A8C00AC2D0000AC2D0000AC2D0000842E0000ED
:103A9C00AC2D0000AC2D0000AC2D0000AC2D0000B6
:103AAC00AC2D0000AC2D0000AC2D0000AC2D0000A6
:103ABC00AC2D0000AC2D000098320000782F0000D7
:103ACC00AC2D0000AC2D0000AC2D0000AC2D000086
:103ADC00782F0000AC2D0000AC2D0000AC2D0000A8
:103AEC00AC2D0000AC320000683200003431000014
:103AFC00AC2D0000AC2D00003C320000AC2D0000C1
:103B0C002C320000AC2D0000AC2D00008C2E0000DF
:103B1C0058310000C0300000C0300000C030000040
:103B2C00C0300000C0300000C0300000C0300000C9
:103B3C00C0300000C0300000C0300000C0300000B9
:103B4C0090310000C0300000C0300000C0300000D8
:103B5C00C030000090310000C0300000C0300000C8
:103B6C00C0300000C0300000C0300000D83200006F
:103B7C0058310000C0300000C0300000C0300000E0
:103B8C00C030000090310000C0300000C030000098
:103B9C005831000008340000C4330000C433000066
:103BAC00C4330000C4330000C4330000C43300002D
:103BBC00C4330000C4330000C4330000C43300001D
:103BCC00C433000010340000C4330000C4330000C0
:103BDC00C4330000C433000010340000C4330000B0
:103BEC00C4330000C4330000C4330000C4330000ED
:103BFC00D432000008340000C4330000C433000089
:103C0C00C4330000C433000010340000C43300007F
:103C1C00C43300000834000058310000AC330000FD
:103C2C00AC330000AC330000AC330000AC3300000C
:103C3C00AC330000AC330000AC330000AC330000FC
:103C4C00AC330000AC33000090310000AC3300000A
:103C5C00AC330000AC330000AC33000090310000FA
:103C6C00AC330000AC330000AC330000AC330000CC
:103C7C00AC330000D832000058310000AC330000E7
:103C8C00AC330000AC330000AC33000090310000CA
:0C3C9C00AC330000AC33000058310000D5
:103CA800537570657220507570657220576F726415
:053CB800212121200084
:0C3CC000C44A0000C84A0000CC4A0000C2
:00000001FF
